:100000000C9447050C94BC2F0C948E050C948E0513
:100010000C948E050C948E050C948E050C948E0514
:100020000C948E050C948E050C94F92C0C94252EB2
:100030000C94BE1B0C948E050C948E050C948E05AE
:100040000C948E050C948E050C948E050C948E05E4
:100050000C948E050C94E51B0C948E050C948E0567
:100060000C948E050C948E050C948E050C948E05C4
:100070000C948E050C948E050C948E050C948E05B4
:100080000C948E050C948E050C948E050C948E05A4
:100090000C948E050C948E050C948E050C948E0594
:1000A0000C948E050C948E050C948E050631FF0978
:1000B00074A1010975150026FF00952075088102BD
:1000C0000976150026FF00952075089102C00501EC
:1000D0000980A101850319012AB700150126B7007F
:1000E000950175108100C0050C0901A10185041955
:1000F000012AA002150126A002950175108100C0F9
:1001000005010906A101050719E029E715002501E8
:10011000950875018102950175088101050719008F
:1001200029FF150026FF00950675088100050819AE
:10013000012905950575019102950175039101C08D
:1001400009025B00030100A0FA0904000001030199
:100150000100092111010001224000070581030867
:10016000000A090401000103000000092111010037
:10017000012232000705820320000A09040200025E
:10018000030000000921110100012222000705835C
:1001900003200001070503032000011201100100E4
:1001A00000000810CB562200020102000126034B7A
:1001B0000065006500620069006F00200049007260
:1001C000006900730020005200650076002E0020B8
:1001D00000320000000E034B0065006500620069FC
:1001E000006F000000040309045B435D005B445D95
:1001F000005B535D005B575D005B525D00726762A0
:100200006C696768745F636F6E6669672E7370658B
:100210006564203D2025640A007267626C69676826
:10022000745F636F6E6669672E76616C203D202572
:10023000640A007267626C696768745F636F6E66F8
:1002400069672E736174203D2025640A007267621D
:100250006C696768745F636F6E6669672E68756541
:10026000203D2025640A007267686C696768745FC6
:10027000636F6E6669672E6D6F6465203D2025642F
:100280000A007267626C696768745F636F6E6669A3
:10029000672E656E61626C65203D2025640A0072E0
:1002A00067626C696768745F636F6E666967204533
:1002B0004550524F4D3A0A007267626C6967687424
:1002C0005F696E6974207267626C696768745F63E6
:1002D0006F6E6669672E6D6F6465203D20302E203D
:1002E00057726974652064656661756C7420766107
:1002F0006C75657320746F20454550524F4D2E0A22
:10030000007267626C696768745F696E6974206502
:1003100065636F6E666967206973206E6F74206510
:100320006E61626C65642E0A007267626C69676850
:10033000745F696E6974207374617274210A00724B
:1003400067626C696768745F696E69742063616C69
:100350006C65642E0A000A0025303862003A2000DD
:1003600025303258000A722F632030313233343551
:1003700036370A007267626C6967687420616E695B
:100380006D6174696F6E207469636B207265706F44
:10039000727420746F20736C6176650A001E0F05FD
:1003A00000047F3F1F643214643214783C1E1E1414
:1003B0000A050A0025303258006B6579626F617258
:1003C000645F7365745F6C65643A20005B735D0005
:1003D0004B6579626F6172642073746172742E0A66
:1003E000000A002530325820006B6579626F617217
:1003F000645F7265706F72743A20004F6E65736847
:100400006F743A206163746976653A2025640A0046
:100410006261636B6C6967687420737465703A20FD
:1004200025750A006261636B6C6967687420646992
:100430007361626C650A006261636B6C6967687402
:1004400020746F67676C653A2025750A00626163E6
:100450006B6C6967687420696E6372656173653A75
:100460002025750A006261636B6C6967687420649B
:10047000656372656173653A2025750A00000000A6
:10048000000000000000000000000000000000006C
:10049000000000000000000000000000000000005C
:1004A000007E0F00D4FFFFFFC700000078000000AF
:1004B00000000000002A2B280000000000000000BF
:1004C000000000000000000029000000002C1E3485
:1004D00020212224342627252E362D3738271E1F8B
:1004E000202122232425263333362E37381F0405B6
:1004F000060708090A0B0C0D0E0F10111213141524
:10050000161718191A1B1C1D2F3130232D35040501
:10051000060708090A0B0C0D0E0F10111213141503
:10052000161718191A1B1C1D2F3130354C726762B3
:100530006C696768742064697361626C65205B45EF
:100540004550524F4D5D3A207267626C696768741E
:100550005F636F6E6669672E656E61626C65203DD4
:100560002025750A007267626C6967687420746F71
:1005700067676C65205B454550524F4D5D3A207270
:1005800067626C696768745F636F6E6669672E6522
:100590006E61626C65203D2025750A004445425518
:1005A000473A2064697361626C65642E0A004445B1
:1005B0004255473A20656E61626C65642E0A00629E
:1005C00061636B6C6967687420656E61626C650A53
:1005D000002223252628292A2C2D2F303233353688
:1005E000383A3B3D3E4042434547494A4C4E5051C4
:1005F000535557595A5C5E6062646668696B6D6FEB
:1006000071737577797B7D7F81838587898A8C8EED
:1006100090929496989A9C9E9FA1A3A5A7A8AAACF5
:10062000AEAFB1B3B4B6B8B9BBBCBEBFC1C2C3C52F
:10063000C6C7C9CACBCCCDCED0D1D2D2D3D4D5D6D1
:10064000D7D7D8D9D9DADADBDBDBDCDCDCDCDCDD04
:10065000DDDDDDDCDCDCDCDCDBDBDBDADAD9D9D8E8
:10066000D7D7D6D5D4D3D2D2D1D0CECDCCCBCAC980
:10067000C7C6C5C3C2C1BFBEBCBBB9B8B6B4B3B1AF
:10068000AFAEACAAA8A7A5A3A19F9E9C9A9896944A
:1006900092908E8C8A89878583817F7D7B7977751F
:1006A00073716F6D6B6968666462605E5C5A5957FE
:1006B000555351504E4C4A4947454342403E3D3BBD
:1006C0003A3836353332302F2D2C2A292826252347
:1006D000227267626C696768742074696D65722044
:1006E00064697361626C652E0A007267626C696787
:1006F00068742074696D657220656E61626C6564F2
:100700002E0A007267626C6967687420646973619D
:10071000626C65205B4E4F454550524F4D5D3A200F
:100720007267626C696768745F636F6E6669672E73
:10073000656E61626C65203D2025750A00726762F6
:100740006C696768742073657420687376205B4EEB
:100750004F454550524F4D5D3A2025752C25752C3F
:1007600025750A007267626C696768742073657426
:1007700020687376205B454550524F4D5D3A2025E9
:10078000752C25752C25750A007267626C6967687F
:1007900074207261696E626F77207365742068736C
:1007A000763A2025642C25642C25642C25750A00B6
:1007B000FFAA7F55407267626C6967687420656E36
:1007C00061626C65205B454550524F4D5D3A207229
:1007D00067626C696768745F636F6E6669672E65D0
:1007E0006E61626C65203D2025750A007267626C3F
:1007F00069676874206D6F6465205B4E4F45455096
:10080000524F4D5D3A2025750A007267626C696728
:100810006874206D6F6465205B454550524F4D5D97
:100820003A2025750A0000010101010101010101C1
:100830000202020202020202020303030303030391
:10084000030404040404040405050505050606065E
:100850000606070707070708080808090909090A1B
:100860000A0A0B0B0B0C0C0C0D0D0D0E0E0E0F0FC0
:100870000F1010111111121213131414151516164E
:100880001717181819191A1A1B1B1C1D1D1E1E1FBD
:100890002020212222232424252626272829292A0C
:1008A0002B2C2D2D2E2F3031323233343536373834
:1008B000393A3B3C3D3E3F40414243444546474830
:1008C000494A4C4D4E4F50515354555658595A5B06
:1008D0005D5E5F616264656668696B6C6D6F7072A6
:1008E000737577787A7B7D7E8082838587888A8C12
:1008F0008E8F91939596989A9C9EA0A2A3A5A7A946
:10090000ABADAFB1B3B5B7BABCBEC0C2C4C6C9CB3C
:10091000CDCFD1D4D6D8DBDDDFE2E4E7E9EBEEF0F2
:10092000F3F5F8FAFDFF2E001E001F002000210045
:1009300022002B0014001A000900130005002942B0
:1009400004001500160017000A0000571D001B00C8
:1009500006000700190000000000E100E0002A4244
:100960002B682D00270026002500240023003100DD
:1009700033001C0018000F000D00340012000C00A2
:10098000080011000E00E5003800370036000B00AB
:100990001000000000004C00E2002C62280029003A
:1009A00001000100010001000100010014001A0013
:1009B00008001500170001000400160007000900D8
:1009C0000A0001001D001B000600190005000000C0
:1009D0000000010001002C002C00010001000100BA
:1009E0000100010001000100130012000C001800BA
:1009F0001C00010033000F000E000D000B00010071
:100A000001000100010010001000000000000100C2
:100A100001002A00280045003A003B003C003D0050
:100A20003E000000C45C46002F023002310200008C
:100A30004B004E002602270235000000E00004555E
:100A40002F0030003502000000000000E000E2004E
:100A50000000440043004200410040003F00A90064
:100A60004A002600250024005200AA004D00230061
:100A70002200210051007F00E60020001F001E0020
:100A8000240200000000000027004F005000112445
:100A90001FBECFEFDAE0DEBFCDBF04B603FE27C036
:100AA00080911C0390911D03A0911E03B0911F0320
:100AB0008730904BA740B04BD1F410921C0310929A
:100AC0001D0310921E0310921F0314BE84B7877F6C
:100AD00084BF0FB6F894A8958091600088618093D8
:100AE0006000109260000FBEE0E0F8E3099511E0AD
:100AF000A0E0B1E0E4EFFAE602C005900D92AA3C56
:100B0000B107D9F723E0AAECB1E001C01D92AC31E6
:100B1000B207E1F70E94FE280C943F350C940000C8
:100B2000FF93EF93E091CA01F091CB01309709F068
:100B30000995EF91FF910895FC018591803011F0A6
:100B4000EFDFFBCF0895FF27E0E230E247FF0CC064
:100B5000419597FF09C0EDE260957095809590955D
:100B6000611D711D811D911D27FF02C0219530E37C
:100B700050E2AA27660F771F881F991FAA1FA41784
:100B800010F0A41B63955A95A9F7AA3008F0A95F45
:100B9000A05DAF93F395611571058105910541F74E
:100BA000ED3211F4EF93F395F21718F43F93F395A8
:100BB000FBCF8F91B5DFFA95E1F70895E991F991AF
:100BC0008591803021F0853219F0AADFF9CF0895A0
:100BD00020E0E89455915532C1F3503311F46894F4
:100BE00055915A3348F4505390F3220F022E220F9E
:100BF000220F200D250FF4CF0EF4219589919991A4
:100C0000533619F3533729F1533559F1BC0188276D
:100C10009927E8945C3621F48991999168945591CB
:100C2000543639F446EF7EF077FF0DC08FEF9FEF1B
:100C30000AC055374AE039F0583540E121F05236C4
:100C400042E009F00895FF93EF937DDFEF91FF916C
:100C5000B7CFFF93EF93FC0181918030B9F360DF50
:100C6000FBCFFF93EF9368DFF1CFDF93CF93CDB747
:100C7000DEB72596A3DFCF91DF910895829594E0AA
:100C8000899F900111242C7C869586958373282B4F
:100C900030E0C901880F991F8A7A35952795257507
:100CA000822B08959091010392FF06C0282F28718E
:100CB0002830F9F4877F846093FF06C0282F2871BD
:100CC0002831F1F4877E84612091020320FF06C061
:100CD000382F38713830D9F4877F816021FF06C002
:100CE000282F28712831D1F4877E816194FD877E79
:100CF0000895282F24712430F9F68B7F8860DCCF8B
:100D0000282F2471243101F78B7E8861DDCF382FA5
:100D10003171313019F78E7F8860E0CF282F217133
:100D2000213121F78E7E8861E1CFCF93DF93972F1A
:100D300070E026E0929F600D711D1124FB013CE3E1
:100D4000839FE00DF11D1124EE0FFF1FEA5DF64FAA
:100D5000C591D491CE01C03ED10509F47DC088F57E
:100D6000C133D10509F4B9C090F4C932D10509F4F1
:100D7000ADC0CA32D10509F4B7C0C130D10509F4FC
:100D80007EC02497C13AD10508F479C071C0C93337
:100D9000D10509F45AC0C238D10509F456C0C5338B
:100DA000D10509F48CC0C03CD10508F024C1C83A73
:100DB000D10508F0A0C0C53AD105F8F28497906437
:100DC0005EC0C43ED10509F468C068F5C23ED105D5
:100DD00009F451C0C33ED10509F454C0C11521E541
:100DE000D20708F0B2C0C11530E5D30708F491C0AE
:100DF0009E0174E0369527957A95E1F723708C2F44
:100E000086958695837030E2839FC0011124922BD2
:100E1000C370E1E0F0E002C0EE0FFF1FCA95E2F7F9
:100E20008E2B9F2BBBC0C63ED10509F441C0C73EE7
:100E3000D105A1F62091010323FD2AC130910203BF
:100E400031FF28C084EE90E01AC020910103237086
:100E5000B1F080EE90E013C02091010320FD12C19B
:100E60003091020330FF0BC083EE90E024FF07C0F7
:100E700090E080E004C02091010322FDF5CFDF91D6
:100E8000CF9108952091010322FDFFC0309102030C
:100E900030FDDFCF24FFF3CFEBCF2091020321FF02
:100EA000EECF8091010384FDE3CF87EE90E0E7CFA2
:100EB0002091010323FFE3CF24FDDACFF6CF209169
:100EC000010325FFDCCF89E290E0D9CF2091010317
:100ED00025FFD5CF85E390E0D2CF2091010326FFF7
:100EE000CECF8AE290E0CBCF2091010326FFC7CF7F
:100EF00081E390E0C4CFCF3BD10509F4B9CFC85A04
:100F0000D0E0CC0FDD1FC456DE4F888199819464F8
:100F1000B6CFC11520E4D207A0F4C11530E3D30742
:100F200008F078C0C11520E2D20708F06CC0C83EB6
:100F3000D10508F4A4CFDA95C115DF4108F49FCF9D
:100F400097CFCE019F70906A9ACFC11586E5D807DA
:100F500060F5C11595E5D90708F07DC0C11524E5F8
:100F6000D207F0F4C11533E5D30708F060C0C1150E
:100F700082E5D80708F456C09E012370332781E02C
:100F800090E002C0880F991F2A95E2F7C695C69592
:100F900020E2C29FE00111248C2B9D2B9C686FCF17
:100FA0009C2F8827846F906A6ACFC1153AE5D307D2
:100FB00088F4C11589E5D80708F057C0CE019855C7
:100FC0008F3F910511F008F053CF9C2F8827806F39
:100FD000906A55CFCE0190568115904208F048CFC7
:100FE0008D2F8F710E94520690E0982F88278827B6
:100FF0009F718C2B38C0FE01EE0FFF1FEA55F84F92
:10100000859194913CCFFE01FF70EE0FFF1FEA5DCA
:10101000F64FF6CFCE019927D3FF02C0986C2FCFA1
:10102000906C2DCF9C2F8827816F906A28CF9E01CE
:101030002370332781E090E002C0880F991F2A9522
:10104000E2F7C695C69520E2C29FE00111248C2BE1
:101050009D2B9A6814CF8C2F0E94520690E0982FF7
:10106000882788279F7190620ACF8C2F8F700E94EB
:10107000520634E0D695C7953A95E1F7CF709C2F8C
:101080009069FDCE89E390E0FACE82EE90E0F7CE53
:1010900086EE90E0F4CEF894E82FE295EF70A1E2AE
:1010A000AE0FB0E04C918F7021E030E0B90102C08A
:1010B000660F771F8A95E2F7CB01962F90959423C0
:1010C0009C93EE5DF0E09081892B80837894089565
:1010D0008F929F92AF92BF92CF92DF92EF92FF9248
:1010E0000F931F93CF93DF93D82EC62EE901E42FE1
:1010F000F0E0EA5DF74F611113C04491942FE42FA3
:10110000E98348839A83DF91CF911F910F91FF90DC
:10111000EF90DF90CF90BF90AF909F908F90089509
:10112000062F10E0E49186E0D89E700111242FEF85
:1011300030E0C701B9010E94F4308D2D90E0880F96
:10114000991FF5E5F69FA001F79F500D1124841B10
:10115000950B982F990F890FA901401B510BE49F04
:10116000D001E59FB00D11244B2FC89E60011124C2
:10117000CD2CDD245901AC18BD08EA9D6001EB9D22
:10118000D00C11249D2D4901881A9108809E500190
:10119000819EB00C909EB00C1124AB2CBB242A195C
:1011A0003B09E29F8001E39F100D1124633071051C
:1011B000D1F08CEFE81683E0F80670F46130710529
:1011C000B1F062307105B9F08FEFE816F10408F064
:1011D00097CF9B2F412F94CF6430710579F0663003
:1011E0007105B9F38DCF4D2D9E2FEB2F89CF4E2F4B
:1011F000ED2D9B2F85CF912F4E2FF7CF9E2FE12FD7
:101200007FCF8091DC02982F9E7F29F481708260CD
:101210008093DC0208958635E8F381708465F8CF09
:101220000895FA0181110994FB01FDCFE091780244
:10123000F0917902309721F00190F081E02D09942E
:1012400080E00895209176023091770228173907BF
:1012500071F09093770280937602E0917802F0919A
:101260007902309721F00680F781E02D09940895E6
:1012700020917402309175022817390771F090930C
:10128000750280937402E0917802F09179023097B0
:1012900021F00084F185E02D0994089580913D02AC
:1012A00090913C02981301C008958F5F8770FACF28
:1012B000292F220FE22FE90FEE0FE80F8E2F8770F4
:1012C00041E001C0440F8A95EAF7E695E695E69578
:1012D00085E0E89FF0011124E95FFD4F30E020E058
:1012E00070E05191DF011197CB01022E02C096955B
:1012F00087950A94E2F78170819585278423852755
:101300008C932F5F3F4F2530310559F70895292FD2
:10131000220FE22FE90FEE0FE80F9E2F9770E69550
:10132000E695E69585E0E89FF0011124E95FFD4F21
:1013300050E040E080E0219130E0092E02C0369577
:1013400027950A94E2F721703327042E01C0220F5B
:101350000A94EAF7822B4F5F5F4F4530510559F7EA
:101360000895BF92CF92DF92EF92FF920F931F9357
:10137000CF93DF938C01C0903602D0903702E0907B
:101380003802F09039028091320290913302A0919C
:101390003402B0913502C82AD92AEA2AFB2ACFE1C1
:1013A000D0E0BC2ED701C6010C2E04C0B695A7957F
:1013B000979587950A94D2F780FD0EC0219788F7FC
:1013C000B12C8B2DDF91CF911F910F91FF90EF905A
:1013D000DF90CF90BF900895B8018C2F0E949506A2
:1013E000019761F3EECFFF920F931F93CF93DF939B
:1013F000FC01828100811181C081F180882311F17B
:10140000662301F1C8010E94B109D82F682FC801D5
:101410000E945809EC2FF0E086E0F89EE00DF11DE7
:1014200011248CE3D89FE00DF11D1124EE0FFF1F56
:10143000EA5DF64F85919491DF91CF911F910F91C5
:10144000FF900895C8010E948709D82FE3CFCF935A
:10145000DF93D82FC92F0E94B1096D2F7C2FDF9108
:10146000CF910C9495060E94270A282F892F8F7000
:10147000392F32953F70903C80F43A30B0F43430DC
:1014800020F4323090F480E008953630E1F781E0C6
:10149000283E88F0213FB9F70EC03C3011F03F30B4
:1014A00091F7869586958695089581E0203F39F0DD
:1014B00018F4283E40F70895243F29F7FCCF0895FB
:1014C000AEECB1E0EFEF90E02D91821751F0EF3FDD
:1014D00019F4211101C0E92F9F5F9630A9F7EF3F62
:1014E00009F408950E2E000CFF0BE453FE4F828387
:1014F0000895EEECF1E09191891303C0DF0111979B
:101500001C9291E0E43DF907B1F70895982F90956A
:1015100080917B02892380937B020895982F909578
:1015200080917A02892380937A0208958091310212
:1015300081111092310208952FB7F8948091020220
:1015400090910302A0910402B09105022FBF08956B
:10155000CF93DF9300D000D0CDB7DEB78FB7F8942C
:101560002091020230910302409104025091050241
:1015700029833A834B835C838FBF69817A818B8116
:101580009C810F900F900F900F90DF91CF91089555
:101590009C014FB7F8948091020290910302A091B0
:1015A0000402B09105024FBF821B930B08958091F6
:1015B000FD0108950895FC01CB012091E1013091D6
:1015C000E2012617370790F0009729F42091E800F0
:1015D0002E772093E80040E0009751F4411108C0B5
:1015E0008091E80082FF31C080E00895C901F3CF07
:1015F0002091E1022223A9F12530A9F12091E800F0
:1016000023FD2DC02091E80022FDEACF2091E800C3
:1016100020FFE2CF3091F3002091F200009719F003
:101620002830310558F041E02830310509F040E01C
:101630002091E8002E772093E800CECF419140938F
:10164000F10001972F5F3F4FE9CF8091E10288239E
:1016500041F0853041F08091E80083FFC1CF81E007
:10166000089582E0089583E008958091DB0187FF6B
:1016700013C08091E80082FF06C08091E8008B775C
:101680008093E80004C08091E1028111F2CF0895B7
:101690008091E1028823D9F38091E80080FFF8CFA0
:1016A0008091E8008E77ECCF2091E4003091E50046
:1016B00095E6A9012091EC00822F817020FF06C0E1
:1016C0008091E80080FF06C080E008952091E80046
:1016D00022FD1AC08091E102882389F0853089F0CB
:1016E0008091EB0085FD0FC02091E4003091E50072
:1016F00042175307F9F29150E1F684E0089582E031
:10170000089583E0089581E00895E8EDF0E0808198
:101710008E7F80831092E2001092DA001092E10036
:10172000A0EEB0E08C9181608C9380818F77808374
:1017300019BCA7EDB0E08C918E7F8C9380818F7E59
:1017400080831092DA010895EF92FF920F931F9316
:10175000CF937C018B010E94540BC82F811117C0BD
:101760008091E80085FD0BC08091E8008E77809322
:10177000E8000E94540B882399F3C82F08C0F70192
:1017800081917F018093F1000150110949F78C2F5D
:10179000CF911F910F91FF90EF900895982F909304
:1017A000E900242F762F50E0891731F07091EC007A
:1017B0002091ED005091F00021FD06C09F5F973011
:1017C00071F78093E90008953091EB003E7F3093EC
:1017D000EB003091ED003D7F3093ED003091EB0058
:1017E00031603093EB007093EC002093ED00509348
:1017F000F0002091EE0027FDE1CF0895CF92DF9217
:10180000EF92FF920F931F93CF93DF93C8EDD0E039
:1018100088818F7E8883E7EDF0E08081816080831E
:1018200084E082BF81E08093DA0188818E7F8883A3
:1018300002EE10E0F80110821092DA0081EEC82E5C
:10184000D12CF601108288818F7788838881806807
:10185000888388818F7D888319BC1092E102109261
:10186000D9011092F2011092D80190EEE92EF12CDC
:10187000F70180818B7F808388818160888342E04B
:1018800060E080E00E94CE0BF60180818E7F808335
:10189000F801808181608083808188608083F70186
:1018A00080818E7F8083888180618883DF91CF9162
:1018B0001F910F91FF90EF90DF90CF90089580914E
:1018C000E202811110C08091D80080618093D8001D
:1018D0008AE18A95F1F700C08091D90080FF0AC0A3
:1018E00081E08093E20281E09091E202913009F080
:1018F00080E0089582E08093E2020E94850B1092BE
:10190000E102F1CF609114018091DC0280FF20C0E0
:101910008091130143E0849FC00111248C549D4F9A
:10192000539A2BB1277F3BB138605FB7F894FC0125
:10193000649FE00DF11D1124BF0168177907D1F4F0
:101940005FBF8FE594E00197F1F700C000000895B4
:10195000809115019091160123E0829FF0011124DE
:10196000EC54FD4F8917A0F61182108212828F5F0E
:101970003396F8CFFC014191CF01E8E03BB900007C
:1019800000C047FF2BB9440F000000C000C000C0DA
:101990002BB900C0EA9591F7D0CF9091DC0290FF6F
:1019A00014C0909115012091160133E0939FF0012E
:1019B0001124EC54FD4F921710F00C94820C81838B
:1019C000608342839F5F3396F6CF0895CF93DF9372
:1019D00000D00F92CDB7DEB79091DC0290FF0AC025
:1019E0009E012F5F3F4F0E9468084B8169818A8169
:1019F0000E94CD0C0F900F900F90DF91CF91089522
:101A0000CF93DF93EC01EC81F0E0EF52FA4F449179
:101A1000ECEDF2E0628181810E94E60C8C818F5FA7
:101A20008C83DF91CF910895CF93DF93EC01ECEDA0
:101A3000F2E0438162818C810E94E60C8C818F5F91
:101A40008C83DF91CF9108950F931F93CF93DF93F2
:101A500000D00F92CDB7DEB78C018091B102811119
:101A60000AC09E012F5F3F4F4FEF6FEF0E94680843
:101A70008A818093B102F8016481613049F062305B
:101A8000F1F08091B10240E0662331F040E019C0EE
:101A90006091B10240E080E00E94CD0CF8018481A9
:101AA00090E0019663E070E00E94083184830F901B
:101AB0000F900F90DF91CF911F910F91089540915A
:101AC000B10280E060E0E8CFEF92FF921F93CF93E6
:101AD000DF93EC0110E0EE24EA94F12C6091170101
:101AE000161770F00E94820C9A818C8190FF27C09B
:101AF0008F5F8C83DF91CF911F91FF90EF900895BE
:101B000020911501422F410F5527551FCA019A01F7
:101B1000220F331F280F391F2C543D4F70E0C7018F
:101B20000E940831962F8C814091DF026091DE0285
:101B3000199F800D11240E9468081F5FCFCF81502C
:101B4000D8CF9F92AF92BF92CF92DF92EF92FF9247
:101B50000F931F93CF93DF93EC018A81BB24BA9438
:101B600080FD02C0BB24B394A09017018C81811129
:101B700009C081E0B81225C08FEF8A0D8093B302AF
:101B800081E08C83F12CE12CEA14F0F00E94820CAD
:101B90008091B30291E0B9125EC0811157C080916B
:101BA000170181508093B3021C82DF91CF911F9166
:101BB0000F91FF90EF90DF90CF90BF90AF909F90EC
:101BC00008951092B302DCCF809115018E0D9F2DE8
:101BD000911D8C01000F111F080F191F0C541D4F70
:101BE000F80111821082128234E0C32ED12C912C84
:101BF0008091B302890D8B302CF16AE00E94E630AF
:101C0000892F082E000C990B8E159F0591F4809159
:101C1000DF028C9DA0018D9D500D11245595479597
:101C20005595479598016091DE028091DD020E94F2
:101C300068089B0CF1E0CF1AD108D1F68FEFE81AB3
:101C4000F80AA2CF87FFDDCF8A0DDBCF81508093CA
:101C5000B302BC82AACF90E001966091170170E0B8
:101C60000E9408318093B3028C839FCFCF92DF9282
:101C7000FF920F931F93CF93DF93EC018C8181111F
:101C800009C081E08C831092B20292E0909312011D
:101C900080931101109115019091160183E0189F16
:101CA000F0011124EC54FD4F812F891778F100E0E9
:101CB00093E0F92E60911701061770F10E94820CD3
:101CC000809111012091B202280F2093B2029091CD
:101CD0001201980F90931201191654F4022E000C61
:101CE000330B409117014150550B2417350734F041
:101CF000819580931101813009F41C82DF91CF918D
:101D00001F910F91FF90DF90CF9008951182108264
:101D100012828F5F3396C9CFC02ED12C70E0C601DE
:101D20000E940831810F482F50E02091B202022E0C
:101D3000000C330BC216D306BCF020911201022E08
:101D4000000C330B2C153D057CF08F9D9001112468
:101D50002C543D4F4091DF026091DE028091DD0204
:101D60000E9468080F5FA6CFFA01EE0FFF1FE40F75
:101D7000F51FEC54FD4F118210821282F3CFEF92C7
:101D8000FF920F931F93CF93DF93CDB7DEB72E97BC
:101D90000FB6F894DEBF0FBECDBF8D879E87AD8591
:101DA000BE8514961C91212F30E0D9010E94303558
:101DB0009B01AC010E94FB3469837A838B839C83F3
:101DC000E0E2F0E0E11BF109A5E5B0E09B01AC0128
:101DD0000E94FB3469877A878B879C879F01DF018C
:101DE0000E9422316D837E838F8398879B01AC0193
:101DF0000E9406359B01AC0169817A818B819C81AF
:101E0000260F371F481F591F69857A858B859C854A
:101E10000E940E35F22E822F90E079E2721788F13F
:101E200083E0289F9001112435952795122F109556
:101E300000E085E5E82EEF1880911701081780F182
:101E40000E94820CAD85BE8514969C9181E09923F9
:101E500019F0903219F48FEF8093100180911001E6
:101E6000890FED85FE8584832E960FB6F894DEBF2C
:101E70000FBECDBFDF91CF911F910F91FF90EF90DB
:101E8000089525E530E0D901A81BB90B9D01220F6B
:101E9000331F2A0F3B1F37FFC7CF2F5F3F4FC4CFE2
:101EA0008E2D01FD8F2D20911501E22FE00FFF27D0
:101EB000FF1F9F01220F331F2E0F3F1F2C543D4F3A
:101EC000412F6091DE020E9468080F5FB5CF0F932B
:101ED0001F93CF93DF93EC0110E000E09091170186
:101EE0009017110609F06CF40E94820C8C8190E02E
:101EF0000196817099278C83DF91CF911F910F916B
:101F0000089580911501A801480F511D9A01220FD3
:101F1000331F240F351F2C543D4F4C816091DE023E
:101F20008091DD0296959017110651F04CF04423F4
:101F300049F04091DF020E9468080F5F1F4FCECF2B
:101F40004423B9F340E0F7CFCF93DF93D82FC92FC5
:101F500081E08093E9008FEF9091E800815095FD3A
:101F600006C095ED9A95F1F700008111F5CF8091AB
:101F7000E80085FF16C050E040E068E070E08D2F7B
:101F80009C2F0E94A40B8091E8008E778093E8003C
:101F900088E0ED2FFC2FA5EFB1E001900D928A951E
:101FA000E1F7DF91CF910895CF93DF9300D00F92A7
:101FB000CDB7DEB79091E102943019F589836A8339
:101FC0007B8382E08093E9008FEF9091E80081505D
:101FD00095FD06C095ED9A95F1F700008111F5CFBA
:101FE0008091E80085FF0DC050E040E063E070E0C4
:101FF000CE0101960E94A40B8091E8008E77809319
:10200000E8000F900F900F90DF91CF910895BC01E1
:1020100083E00C94D40FBC0184E00C94D40F9FB7E0
:10202000F8941092F4019FBF9091E102943009F06E
:1020300048C02091E9002F703091EC00932F9170EF
:1020400030FD90E8922B23E02093E9002091EB00F3
:1020500020FF34C02091EE0027FF30C02091F30113
:10206000222321F02091E80025FF28C01092F301DF
:1020700026E03091E80035FF14C08093F100809194
:10208000E80085FD27C08091E80080FFFCCF8091AB
:10209000E8008E778093E8009F709093E90080E0DD
:1020A00008953091E102343049F43091EB0035FD70
:1020B00005C0215041F481E08093F3019F7090931B
:1020C000E9008FEF0895EFE9FFE03197F1F700C0E5
:1020D0000000CFCF8FB7F89421E02093F4018FBF99
:1020E000DBCF0F931F93CF93DF938B01D82FC92F93
:1020F0000E940109A8016D2F7C2F88E090E0DF91FC
:10210000CF911F910F910C94BA34ECEDF2E083E083
:10211000808311828FEF828383831482E9EDF2E062
:1021200082818360828363E070E08FEF9FEF0C9485
:102130007110CF93DF9300D000D0CDB7DEB7809180
:10214000E002833018F48F5F8093E0028091DC021C
:102150009091DD02A091DE02B091DF0289839A8323
:10216000AB83BC83BC01CD010F900F900F900F90FB
:10217000DF91CF910C947110CF93DF9300D000D0FA
:10218000CDB7DEB78091E002882319F081508093AB
:10219000E0028091DC029091DD02A091DE02B0911C
:1021A000DF0289839A83AB83BC83BC01CD010F908E
:1021B0000F900F900F90DF91CF910C9471104F9270
:1021C0005F926F927F928F929F92AF92BF92CF92C7
:1021D000DF92EF92FF920F931F93CF93DF9300D084
:1021E00000D000D00F92CDB7DEB7182FF62E042FF7
:1021F000E22E9091DC0290FF5DC0E92FE695AE2FB4
:10220000B0E0AF59BE4F8C918093D9029E7F92303F
:1022100009F067C09E012F5F3F4F812F0E94680821
:102220004B8169818A810E94CD0C8091DD028113EE
:1022300008C08091DE028F1104C08091DF028017F8
:1022400029F08091DB0282608093DB021093DD0233
:10225000F092DE020093DF02EE2009F4A2C080912A
:10226000DC029091DD02A091DE02B091DF028C834E
:102270009D83AE83BF83BC01CD010E94711080910C
:10228000D80280FF17C08091DF021F928F93809148
:10229000DE021F928F938091DD021F928F9384E65E
:1022A00097E09F938F930E9435060FB6F894DEBF98
:1022B0000FBECDBF27960FB6F894DEBF0FBECDBFC1
:1022C000DF91CF911F910F91FF90EF90DF90CF9012
:1022D000BF90AF909F908F907F906F905F904F9046
:1022E0000895823019F40091DF029FCF863019F4EF
:1022F0001091DD029ACF8930D9F3893109F095CF59
:10230000E9518E2F8170682E81E0762C7826E69533
:10231000F0E0E055F84FC590D490512CDD2499E8B9
:10232000892E97E0992E60911701561618F00E9499
:10233000820C7BCFA52CB12C5C9CC0015D9C900DC8
:10234000112470E00E94F430412E611028C0460E26
:102350008091D80280FF11C0DF92CF921F927F92AE
:102360001F924F921F925F929F928F920E9435060A
:102370000FB6F894DEBF0FBECDBF80911501A80E39
:10238000B11C9501220F331F2A0D3B1D2C543D4FCC
:10239000402F6F2D842D0E9468085394C4CF461A95
:1023A000D7CF8091D80280FF85CF1F920F931F92C5
:1023B000FF921F921F938DE397E073CFECEDF2E055
:1023C000818121E043816281885F0C94DF10ECED14
:1023D000F2E0818121E04381628188500C94DF101A
:1023E000ECEDF2E0628128E0620F08F46FEF21E08B
:1023F000438181810C94DF10ECEDF2E0628128E0F2
:10240000621B08F460E021E0438181810C94DF10BD
:10241000ECEDF2E0438128E0420F08F44FEF21E0B9
:10242000628181810C94DF10ECEDF2E0438128E0C1
:10243000421B08F440E021E0628181810C94DF10AE
:102440001092DA028091DB0284608093DB0280913B
:10245000D80280FF08C081ED96E09F938F930E9481
:1024600035060F900F9008954F925F926F927F9272
:102470008F929F92AF92BF92CF92DF92EF92FF9294
:102480000F931F93CF93DF93FC016280448081E020
:102490008483E1EDF5E07490E0E5F6E0E491812CD1
:1024A00075E0972EF2E0CF2EDD24D394AA24AA94CF
:1024B000B12C55245A94E7190E2F10E08091170182
:1024C000881690F0DF91CF911F910F91FF90EF90C0
:1024D000DF90CF90BF90AF909F908F907F906F9044
:1024E0005F904F900C94820CE82CF12C82E08615C2
:1024F00068F09E9CF0019F9CF00D1124E158FD4F67
:102500008091DD0280838091DE028183411023C0AF
:102510009E9CF0019F9CF00D1124E158FD4F138209
:102520001282809115018E0D9F2D911D9C01220F0D
:10253000331F280F391F2C543D4F9E9CF0019F9C48
:10254000F00D1124E158FD4F4281618180810E948C
:1025500068088394B3CF9E9CE0019F9CD00D11240A
:10256000C158DD4F8B818823E9F081508B83859D95
:10257000C00111246C8170E00E94F430FB01FF2740
:10258000EF52FA4F8491E82FE719E59DC00111241D
:10259000B8010E94F4308091DF02689FB0011124DD
:1025A0007A83BFCF0E94D031AC019091DF02969523
:1025B00091589C9D90019D9D300D1124232F332710
:1025C000421753070CF0ADCF82E0861588F40E94C5
:1025D000D031B5010E94083188830E94D03120910A
:1025E000DE022695622F70E00E940831280F2983B1
:1025F0009E9CF0019F9CF00D1124E158FD4F12822A
:102600008091DF02893C58F088EC9E9CF0019F9CF1
:10261000F00D1124E158FD4F8483838382CF8431F0
:10262000A0F784E1F2CFCF9384E090E00E9494344D
:10263000C82F82E290E00E949434982F8C2FCF9183
:102640000895682F86E090E00C94A834CF93DF9330
:10265000D82FC0910203C2FB882780F98D17F9F0AB
:10266000D0FBC2F9C09302036091010384E090E0C3
:102670000E94A8346C2F82E290E00E94A8348091DE
:10268000D80280FF0CC01F92DF938BEF93E09F93E3
:102690008F930E9435060F900F900F900F90DF914F
:1026A000CF910895EF92FF920F931F93CF93DF93F3
:1026B00080917B0290917A02892B90913A02892B2A
:1026C0008093CC0190913102992391F0892B8093D2
:1026D000CC0120E08EEC91E0FC01308101963111BB
:1026E0002F5F31E0843D9307B9F721110E94960ACC
:1026F000E0917802F09179023097C9F10280F3817C
:10270000E02D8CEC91E009958091D80282FF2FC0DA
:1027100080FF04C089EE93E00E949C05CCECD1E0E0
:1027200084EDE82E81E0F82E03EE13E08091D802CC
:1027300080FF0BC088811F928F931F930F930E947D
:1027400035060F900F900F900F902196EC16FD0616
:1027500069F78091D80280FF0AC081EE93E0DF9193
:10276000CF911F910F91FF90EF900C949C05DF91FA
:10277000CF911F910F91FF90EF900895EF92FF92EC
:102780000F931F93CF93DF93EC018A85811134C09F
:10279000EB80FC8087E5F81A26E12E9DC0012F9D75
:1027A000900D1124DC01AD5DBE4F1496ED91FC91AE
:1027B0001597309731F054966D917C91875D9E4FBF
:1027C000099586E18E9D80018F9D100D11240D5D70
:1027D0001E4FF80187810E94860AF80180850E94B9
:1027E0008E0A0E945213188219861B861E821D8231
:1027F00010927D0210927C02DF91CF911F910F9178
:10280000FF90EF900895CF93DF93EC0181E0898BE7
:1028100080917B029F81892B80937B0280917A0239
:102820009885892B80937A020E945213EA81FB815A
:10283000309739F06C897D89CE010696DF91CF9172
:102840000994DF91CF910895CF93C82F882309F47D
:1028500088C08238C1F40E94160981FD82C089E3D4
:102860000E94600A0E9452132FEF31EE84E0215043
:1028700030408040E1F700C0000089E30E94790AFF
:10288000CF910C9452138338A1F40E94160980FD55
:1028900068C083E50E94600A0E9452139FEF21EEF8
:1028A00034E0915020403040E1F700C0000083E563
:1028B000E5CF8438A1F40E94160982FD52C087E456
:1028C0000E94600A0E9452138FEF91EE24E0815023
:1028D00090402040E1F700C0000087E4CFCF8CEFAC
:1028E0008C0F813A70F4EEECF1E084ED91E02191EF
:1028F000C21789F18E179F07D1F78C2F0E94600AAB
:10290000BFCF80E28C0F883068F4C77021E030E0E0
:1029100001C0220FCA95EAF780917B02822B809337
:102920007B02AECF8BE58C0F833038F42C2F2452F2
:10293000330BC901CF910C942209C85AC73188F4CE
:10294000EC2FF0E0EE0FFF1FE456FE4F80819181E7
:10295000CF910C9438098C2F0E94790A0E9452134F
:10296000CCCFCF910895882309F44BC0823871F4FD
:102970000E94160981FF45C089E30E94600A0E94F7
:10298000521389E30E94790A0C945213833859F444
:102990000E94160980FF35C083E50E94600A0E94EC
:1029A000521383E5EFCF843859F40E94160982FF51
:1029B00028C087E40E94600A0E94521387E4E2CF95
:1029C0009CEF980F913AF0F290E2980F983050F403
:1029D000877091E001C0990F8A95EAF7892F0E94CC
:1029E000860AD2CF9BE5980F933020F490E080E0E8
:1029F0000C942209885A873120F490E080E00C94EE
:102A00003809089581EE0C94B3140F931F93CF935C
:102A1000C82F10E000E0893311F400E510E08C2F9E
:102A20000E9424140115110531F48C2FCF911F91B0
:102A30000F910C94B3148FE99FE00197F1F700C058
:102A4000000001501109EECF882339F090917B02EC
:102A5000892B80937B020C9452130895882321F0D4
:102A60000E94860A0C9452130895FF920F931F93AD
:102A7000CF93DF93C62FD42F122F8823A9F0609312
:102A80002F020E949C0A9093D5018093D401C770B5
:102A900081E001C0880FCA95EAF7DF91CF911F91BD
:102AA0000F91FF900C94241580912F02681334C06D
:102AB0008091D4019091D5010E94C80A883C91056B
:102AC00058F500E20D0FCD17A9F0C770FF24F3945D
:102AD0008F2D01C0880FCA95EAF70E942E15083085
:102AE00048F48D2F877001C0FF0C8A95EAF78F2D6F
:102AF0000E942415812F0E9405150830A0F4D7707C
:102B000081E001C0880FDA95EAF7DF91CF911F913C
:102B10000F91FF900C942E15C77081E001C0880FB3
:102B2000CA95EAF7F2CFDF91CF911F910F91FF90F5
:102B3000089590E080E00E94220990E080E00E94E9
:102B4000380910927A0210923A020C945213609350
:102B500032027093330280933402909335020C94C6
:102B600099156093360270933702809338029093E0
:102B700039020C9499150F931F93CF93DF9300D0D4
:102B800000D0CDB7DEB741E050E060E070E004C0B7
:102B9000440F551F661F771F8A95D2F78091360222
:102BA00090913702A0913802B09139028A019B01BD
:102BB000082B192B2A2B3B2B09831A832B833C834D
:102BC000C901B8010F900F900F900F90DF91CF9136
:102BD0001F910F910C94B1150F931F93CF93DF9317
:102BE00000D000D0CDB7DEB741E050E060E070E04B
:102BF00004C0440F551F661F771F8A95D2F7409572
:102C00005095609570958091360290913702A09111
:102C10003802B09139028A019B01082319232A2323
:102C20003B2309831A832B833C83C901B8010F908E
:102C30000F900F900F90DF91CF911F910F910C94F7
:102C4000B115CF93DF93EC0188818430E0F080915F
:102C5000030390910403019761F481E00E94EC1555
:102C60001092040310920303CE01DF91CF910C94D4
:102C7000BE1381E00E94BB1581E090E090930403B5
:102C800080930303F1CF81EEDF91CF910C94241454
:102C900090913B028095892380933B02282F2770D7
:102CA00039F4282F082E000C330B9217130621F449
:102CB0009091020392FF07C08595859585950E94A6
:102CC000EC1510923B0208950F931F93CF93DF935F
:102CD0008C01EB0180913C0182FF2DC08B7F8093A2
:102CE0003C018091E6022091E8023091E902AB01BB
:102CF000421B530B20913A0130913B01421753077D
:102D000078F40E94241480913C018D7F80933C01D3
:102D10008091E6020E94B31482E00E948E0A15C0E0
:102D200090917A02926090937A020E94241480918A
:102D30003C018260EBCF802F0E94B3148091E602A9
:102D40009091E7020817190739F30E945213D093A4
:102D5000E902C093E802DF91CF911F910F9108958E
:102D60008F929F92AF92BF92CF92DF92EF92FF929B
:102D70000F931F93CF93DF9300D000D00F92CDB766
:102D8000DEB72CE8E22E21E0F22E37EF832E32E080
:102D9000932E41E9A42E41E0B42E00E0CC24C3944C
:102DA000D12CD7018D917D01F894E82FE295EF7039
:102DB000A1E2AE0FB0E02C918F70A60102C0440FCB
:102DC000551F8A95E2F7CA01922F982B9C93EE5DCE
:102DD000F0E09081809589238083789400C0E6E9B3
:102DE000F1E030E020E010E04191A42FA295AF7017
:102DF000A05EB0E08C9190E04F7002C095958795F1
:102E00004A95E2F780FD45C08C2D022E01C0880F47
:102E10000A94EAF7182B2F5F3F4F2630310521F730
:102E2000F701319780810E944B0850EA5A95F1F7DB
:102E3000D4018C91181779F11C9381E0082BBFEF16
:102E40008B1A9B0AAE14BF0409F0ABCF1091F602A7
:102E5000002319F181E08093E5020E949C0A90937F
:102E6000E4028093E3028091E3029091E4020E94E5
:102E7000C80A0697B0F0A12FB0E0A451BD4F85E07D
:102E8000E7EFF2E001900D928A95E1F71092E502EA
:102E900008C080E0BFCF80E0D1CF8091E5028111F2
:102EA000E2CF0E945F0C182F6091F602882309F48C
:102EB000C6C01A821982FE01339683E0DF011D929B
:102EC0008A95E9F7862F90E032977F01BF01845100
:102ED0009D4F0E94922E81114DC08091EB028F5F19
:102EE0008093EB02863008F460C0E091EA02F0E0E3
:102EF000E451FD4F85E0DF01282F1D922A95E9F767
:102F0000D7011D928A95E9F7809139018F3F09F029
:102F100092C080913C0182FF17C00E949C0ABC01B4
:102F20008091E8029091E9029B01281B390B809166
:102F30003A0190913B012817390730F08091E60261
:102F40009091E7020E946416011101C0012F802FA9
:102F50000F900F900F900F900F90DF91CF911F91D6
:102F60000F91FF90EF90DF90CF90BF90AF909F9028
:102F70008F9008951092EB02A091EA02B0E0A45164
:102F8000BD4F9E012A5F3F4F10E04D91F701919197
:102F90007F01491731F0AD0141505109FA01908389
:102FA000182FE216F30689F7AFCF10E0ADCFA29E3F
:102FB000F001A39EF00D1124ED5DFE4FC288D38871
:102FC000C114D10419F498ECC92ED12CA29EC001D1
:102FD000A39E900D11249C012D5D3E4F7901D901D6
:102FE00016968C9116978823C9F01D968D919C9109
:102FF0000E94C80AC816D90688F4BA9C6001112438
:10300000F7018189811105C0C6018D5D9E4F0E9427
:103010000314C601875D9E4F0E94BE13B3942B2DEF
:1030200030E080913901082E000C990B821793072C
:103030000CF0BDCF6ECFB12C86E1A82EF0CF70E0A2
:1030400064517D4F8091EA0290E084519D4F0E942F
:10305000D42E7ACF10927B02EEECF1E086E0DF0115
:103060001D928A95E9F70C9499151F93CF93DF93DE
:10307000CDB7DEB7AA970FB6F894DEBF0FBECDBFAF
:103080008BED91E0FC0101962091F100208321E07D
:10309000833E9207B9F78091DC01893009F456C06C
:1030A000C8F4823009F4B1C0833009F480C08130A3
:1030B00071F18091E80083FF7BC28091DB019091E8
:1030C000DC019A3008F074C2E92FF0E0EF5BFA4CB3
:1030D0000C941C318A3009F487C08B3051F78091F1
:1030E000DB01813231F78091DF019091E001892B82
:1030F00001F78091E800877F8093E8000E94350BFC
:103100008091DD0180930F010E942A18D2CF809117
:10311000DB01813A71F68091E800877F8093E800B7
:103120008091DF019091E001892B61F468E085EFE7
:1031300091E070E00E94DB0A8091E8008B77809339
:10314000E800B7CF60E090E080E0F3CF8091DB0152
:10315000813209F0AECF8091DF019091E0010297BA
:1031600008F0A7CF8091E800877F8093E8008091E6
:10317000E80082FF17C09091F3008091F20002975F
:1031800029F48091F1008B7F813021F48091F1004E
:103190008093FD018091E8008B778093E8000E9486
:1031A000350B87CF8091E1028111E1CF82CF8091F1
:1031B000DB01813A09F07DCF8091DF019091E00140
:1031C000892B09F076CF8091E800877F8093E80013
:1031D0008091E80080FFFCCF80910F018093F10087
:1031E0008091E8008E77D9CF8091DB01813209F0A0
:1031F00060CF8091E800877F8093E8000E94350BC4
:103200008091DE018093D60154CF8091DB01813A19
:1032100009F04FCF8091E800877F8093E80080918C
:10322000E80080FFFCCF8091D601D8CF803899F09C
:10323000823809F0BDC18091DF018F70873008F0BE
:10324000B7C18093E9008091EB0085FB882780F966
:103250001092E90006C08091D8019091F20191117D
:1032600082609091E800977F9093E8008093F1004E
:103270001092F1008091E8008E7796C1882309F4BE
:1032800084C1823009F094C18091DD01811187C130
:103290008091DF018F702FEF280F263008F088C152
:1032A0008093E9002091EB0020FF79C1933031F445
:1032B0008091EB0080628093EB0071C19091EB00F4
:1032C00090619093EB0021E030E001C0220F8A95DD
:1032D000EAF72093EA001092EA008091EB00886000
:1032E000EACF811165C11091DD011F778091E30064
:1032F0008078812B8093E3008091E800877F809322
:10330000E8000E94350B8091E80080FFFCCF80919F
:10331000E30080688093E30082E0111183E08093F2
:10332000E10246C18058823008F042C14091DD017F
:103330005091DE014C3D83E0580799F583E08A8384
:103340008AE289834FB7F894DE01139620E03EE0CD
:1033500051E2E32FF0E050935700849120FF03C027
:1033600082958F703F5F8F708A30C8F0895C90E0E3
:103370008D939D932F5F243161F74FBF8091E800BB
:10338000877F8093E8006AE270E0CE0101960E9498
:10339000DB0A8091E8008B778093E80009C1805DAB
:1033A000E6CF8091DF019091E001252F3327233074
:1033B000310509F44AC078F52130310509F479C0A6
:1033C0008BE590E0E0E4F1E02230310509F0F0C057
:1033D0002091E800277F2093E8002091E1013091BF
:1033E000E2018217930708F49C0140E021153105A2
:1033F00009F064C0411162C08091E80082FDC9CF2C
:103400008091E102882329F2853019F28091E80049
:1034100083FFF2CFBECF2132310509F43BC0223207
:10342000310509F0C5C08330910508F0C1C0FC0129
:10343000EE0FFF1FEB5AFE4F0190F081E02D8E5AE8
:103440009E4FDC018C9190E011C0CA019927413058
:1034500089F082309105B1F0892B09F0A9C0E5EE21
:10346000F1E0E4918E2F90E0E5EEF1E0009709F4B1
:103470009FC0AECFE5EDF1E0E4918E2F90E0E5ED59
:10348000F1E0F4CFEDEAF1E0E4918E2F90E0EDEA87
:10349000F1E0ECCF8330910508F08AC0880F991FC6
:1034A000FC01E55AFE4F0190F081E02D89E090E0AB
:1034B0008FCF82E190E0EBE9F1E08ACF8091E102E9
:1034C000882309F466CF853009F463CF8091E80042
:1034D00083FD5FCF8091E80082FD8ECF8091E80070
:1034E00080FF84CF9091F3008091F2002115310587
:1034F00019F08830910550F041E0089709F040E05C
:103500008091E8008E778093E80070CF44914093DB
:10351000F1003196215031090196E8CF803809F049
:1035200047C08091E800877F8093E8008091D901AF
:103530008093F1009FCE81113BC01091DD011230CC
:10354000B8F58091E800877F8093E8001093D90157
:103550000E94350B112311F084E005C08091E30037
:1035600087FDFACF81E08093E10242E061EC81E0E7
:103570000E94CE0B42E261EC82E00E94CE0B42E25E
:1035800061EC83E00E94CE0B13C08091DD0181309D
:1035900079F481E0933009F080E08093F201109299
:1035A000E9008091E800877F8093E8000E94350B56
:1035B0008091E80083FF0AC08091E800877F8093B4
:1035C000E8008091EB0080628093EB00AA960FB632
:1035D000F894DEBF0FBECDBFDF91CF911F9108954C
:1035E0008091DB0208951092DB020895CF93DF9360
:1035F000EC0185E0ECEDF2E0DE0101900D928A95A0
:10360000E1F78091D9029091DA02A091DB028D83DB
:103610009E83AF83DF91CF91089580917E02817068
:10362000089580917E028695869586950895CF931C
:10363000DF93CDB7DEB728970FB6F894DEBF0FBE85
:10364000CDBF863050F5811129C0909180009F77C1
:10365000909380002D98282F30E0AFEFBFEF0E94AD
:10366000303525E030E040E050E00E940E35C901E1
:103670002C3764E13607C0F469E070E00E94F43052
:10368000709389006093880028960FB6F894DEBF87
:103690000FBECDBFDF91CF91089585E0909180005E
:1036A000906890938000D7CF2A50374D4F4F5F4F8F
:1036B000B42FA32F922F8827BC01CD0125EF38E22C
:1036C00041E050E00E940E3529833A834B835C83AE
:1036D000CA01B9010E94CA309B01AC0169817A819B
:1036E0008B819C810E94CA30BB27A92F982F872FDE
:1036F000BC010097A140B10519F66FEF7FEFC0CF75
:1037000080917E0280FD1FC0816080937E028130A7
:1037100019F489E080937E0280917E020E94211339
:103720008091D80280FF08C08FEB95E09F938F9324
:103730000E9435060F900F9080917E0286958695A7
:1037400086950C94171B0895282F220F220F220F05
:1037500090917E029770922B90937E02987F21E049
:1037600009F420E090917E0220FB90F990937E0274
:103770000E94171B80917E020C9421131F921FB68A
:103780001F9211248F939F93AF93BF938091060252
:10379000811113C08091020290910302A091040252
:1037A000B09105024196A11DB11D80930202909334
:1037B0000302A0930402B0930502BF91AF919F91C1
:1037C0008F911F901FBE1F90189578941F921FB65F
:1037D0001F9211248F939F93AF93BF938091020206
:1037E00090910302A0910402B09105020196A11DDF
:1037F000B11D8093020290930302A0930402B09340
:103800000502BF91AF919F918F911F901FBE1F9096
:103810001895CF92DF92EF92FF92CF93DF9300D073
:1038200000D0CDB7DEB76B017C010E945F0C811127
:103830000EC00E94A80AC61AD70AE80AF90AC0925E
:10384000FE01D092FF01E0920002F09201020F907F
:103850000F900F900F90DF91CF91FF90EF90DF903E
:10386000CF900895CF93DF9300D000D0CDB7DEB7CF
:103870000E945F0C882341F00F900F900F900F90E3
:10388000DF91CF910C94A80A0E94A80A69837A83D9
:103890008B839C838091FE019091FF01A091000297
:1038A000B091010229813A814B815C81280F391F37
:1038B0004A1F5B1FCA01B9010F900F900F900F9024
:1038C000DF91CF9108950E945F0C81110C949C0AA6
:1038D0000E94321CCB0108956091DC02669570E075
:1038E0004BE050E088E191E00E94E031892B19F42F
:1038F00081E08093DA020E94631C9093D30280934C
:10390000D2028091DB0284608093DB028091D80236
:1039100080FF08C08AEE96E09F938F930E94350641
:103920000F900F900895CF93DF9300D000D0CDB7C4
:10393000DEB79091DC0290FF67C0917081114EC09C
:1039400092609093DC028091DB0281608093DB02C5
:10395000662309F44AC08091DC029091DD02A091B7
:10396000DE02B091DF0289839A83AB83BC83BC0102
:10397000CD010E9471108091D80280FF0FC080910C
:10398000DC0286951F928F938AE098E09F938F9335
:103990000E9435060F900F900F900F906091DC02FF
:1039A000669570E04BE050E088E191E00E94E031E4
:1039B000892B39F10E94201281E08093D50220E00A
:1039C0004091DF026091DE028091DD020F900F9046
:1039D0000F900F90DF91CF910C94DF108B3210F08D
:1039E0009465AFCF880F982BACCF8091D80280FF21
:1039F000D5CF8091DC0286951F928F938CEE97E055
:103A0000C5CF0E946C1CD8CF0F900F900F900F90D5
:103A1000DF91CF9108958091DC0286958F5F8B3284
:103A200008F081E061E00C94931C9091DC02969583
:103A30008FEF890F913009F48AE261E00C94931CB6
:103A40008091DC0281608093DC028091D80280FF4B
:103A50000DC01F9281E08F9385EB97E09F938F932A
:103A60000E9435060F900F900F900F908091DC020E
:103A700061E086950C94931C9091DC0290FF07C046
:103A80009695981720F0961710F40C940B1D61E092
:103A90000C94931C6AEE7EEF90E080E00E94C634A6
:103AA00060E082E090E00E94A83460E083E090E073
:103AB0000E94A83410923202109233021092340203
:103AC0001092350260E084E090E00E94A83460E04B
:103AD00082E290E00E94A83460E085E090E00E94DD
:103AE000A83460E086E090E00E94A8346FEF87E0A1
:103AF00090E00E94A83440E050E0BA0188E090E0F5
:103B00000E94BA3460E08DE090E00E94A83440E06A
:103B100050E0BA0188E190E00E94BA3460E087E1A9
:103B200090E00E94A83440E050E0BA018CE190E0BF
:103B30000E94BA3470E060E080E290E00E94C634F7
:103B400040E050E0BA0188E190E00E94BA340E945F
:103B5000801B83E00E94A41B0E94201D21E04FEFE8
:103B60006FEF80E00E94DF1061E08BE00E94931C09
:103B700040E050E0BA018FE090E00E94BA3440E0AB
:103B800050E0BA0183E190E00C94BA344F925F9216
:103B90006F927F928F929F92AF92BF92CF92DF925D
:103BA000EF92FF920F931F93CF93DF93CDB7DEB7C2
:103BB0002C970FB6F894DEBF0FBECDBF7C01DC01A1
:103BC00013968D919C911497892B41F011968C91AD
:103BD00011979C9189238F3F09F046C72C960FB609
:103BE000F894DEBF0FBECDBFDF91CF911F910F9133
:103BF000FF90EF90DF90CF90BF90AF909F908F900D
:103C00007F906F905F904F900895003C4CE51407B3
:103C100009F4D8C0013C5CE5150709F060C7909134
:103C20007E02892F8695869586958F5F8F71977016
:103C3000863008F0F8C0880F880F880F892B809392
:103C40007E0280917E02887F91E009F490E080916D
:103C50007E0290FB80F980937E020E942113809166
:103C6000D80280FF84C080917E02869586958695D5
:103C70001F928F9380E194E072C0D60116968C91CA
:103C800016978823E9F019968D919C9108171907CA
:103C900039F480917C0290917D020817190781F018
:103CA000F6019786148703878189811103C0C601B5
:103CB0000E940314C60106960E94BE1310927A0257
:103CC000FFEFAF1ABF0A26E1C20ED11CE3C680E0A7
:103CD0000E94A41B80913B02877009F47FCFD7011B
:103CE00012968C91882309F479CF82E02C960FB636
:103CF000F894DEBF0FBECDBFDF91CF911F910F9122
:103D0000FF90EF90DF90CF90BF90AF909F908F90FB
:103D10007F906F905F904F900C94481680917E0238
:103D2000982F987F79F0885080937E02887F91E069
:103D300009F490E080917E0290FB80F980937E02EE
:103D40000E9421138091D80280FF11C080917E02D1
:103D50008695869586951F928F9385E694E09F932E
:103D60008F930E9435060F900F900F900F908091C7
:103D70007E0286958695869553C080917E02982F07
:103D8000969596959695883240F49F5F990F990F76
:103D9000990F8770892B80937E0280917E028160CB
:103DA00080937E020E9421138091D80280FFDFCF92
:103DB00080917E028695869586951F928F938DE4DD
:103DC00094E0CDCF10917E0211708091D80280FFD7
:103DD0002FC71F921F9387E394E09F938F930E94B6
:103DE00035060F900F900F900F90112309F422C702
:103DF00080917E0280FF6ECF80917E028E7F8093C5
:103E00007E020E9421138091D80280FF08C084E2C4
:103E100094E09F938F930E9435060F900F9080E05F
:103E20000E94171B57CF90937E020BCF882309F473
:103E3000A4C6FA018189882309F49FC6C501875D5C
:103E40009E4F0E94BE1399C60B314CE51407A9F092
:103E500080913C018E7F0C315CE5150709F0BCC6F2
:103E600080933C0182E00E948E0A0CC090913C013C
:103E7000892F8E7F90FF8160F3CF80913C0181601C
:103E800080933C01D70112968C91882309F4D5C602
:103E900010922F020631BCE51B0708F03AC1023030
:103EA000ECE51E0708F425C30E9413139093020348
:103EB000809301030631FCE51F0708F052C1023070
:103EC0002CE5120708F040C1609101031091020334
:103ED00084E090E00E94A834612F82E290E00E948A
:103EE000A8340E942A18F6CE80913A0190913B01A5
:103EF000059790933B0180933A01C4CF80913B0199
:103F00008F9380913A018F938DE491E09F938F93EB
:103F10001F9288E08F93BE016F5F7F4F6B017F938D
:103F20006F930E94ED310FB6F894DEBF0FBECDBF88
:103F30002AE0422ED6018C91882309F4A3CF813048
:103F400009F04CC011969C91119712968C9191306A
:103F500031F4B2E0CB0ED11C0E94051507C092309F
:103F600049F4E2E0CE0ED11C0E9424146FEFC61A71
:103F7000D60AE0CF933031F4F2E0CF0ED11C0E948C
:103F8000B314F4CF943021F02FEFC21AD20AEECF3F
:103F900032E0C30ED11C20E030E0A6014F5F5F4F3E
:103FA0008053990B8A30910560F021153105F1F2AB
:103FB000EFE9FFE03197F1F700C00000215031092F
:103FC000F4CF429EB001439E700D11249C01260F38
:103FD000371FD60111968C916A01DFCFE82FF0E0F0
:103FE000E355FB4F5490282F26952695269530E0D3
:103FF000F901E356FB4F64908770712C082E02C0C4
:10400000759467940A94E2F7F1E06F227724F9013E
:10401000E357FB4F8490912C082E02C0959487940F
:104020000A94E2F741E084229924F901E358FB4F16
:10403000A490B12C02C0B594A7948A95E2F751E000
:10404000A522BB246114710419F081EE0E9424148E
:104050008114910419F086EE0E942414852D0E948B
:104060000515892819F086EE0E94B314672819F007
:1040700081EE0E94B314AB2809F478CF8CE26CCFA8
:104080000B32110509F4BAC5FDCE0436110509F449
:10409000B5C5043FBCE51B0789F1C0F4093DFCE54B
:1040A0001F0741F10A3D2CE5120781F126E241EE9E
:1040B00061EE083D3CE5130709F0E4CE0E9435159A
:1040C00009CEB601C8010E94641604CE063F4CE535
:1040D0001407C1F027E245EE66EE073F5CE51507E1
:1040E00069F3053F6CE5160709F0CCCE27E245EEF3
:1040F00064EEE4CF27E245EE65EEE0CF26E241EE46
:1041000060EEDCCF26E241EE62EED8CF28E241E05D
:10411000F3CFC8018B5F9C45099708F4C5CE0631E3
:10412000BCE51B0709F0E0C180917B028A7A91E02F
:1041300009F490E0909330028111A9C089E20E94B5
:10414000600A0E945213C6CDF801E350FC458091ED
:1041500001038160E331F10590F4E55BFA4C0C94C6
:104160001C310B5F1C450930110508F0ADCE025A19
:104170001A4CF8010C941C318091010382608093E9
:104180000103A2CE809101038460F9CF80910103E5
:104190008860F5CF8091020381608093020394CE02
:1041A000809102038260F9CF809101038061E7CFA3
:1041B000809101038062E3CF809101038064DFCFAF
:1041C0000E942A18809101038068D9CF8091010351
:1041D0008C60D5CF809102038360DFCF8091010393
:1041E0008E7FCDCF809101038D7FC9CF8091010358
:1041F0008B7FC5CF80910103877FC1CF8091020360
:104200008E7FCBCF809102038D7FC7CF809101033A
:104210008F7EB5CF809101038F7DB1CF8091010357
:104220008F7BADCF0E942A18809101038F77A7CF93
:1042300080910103837FA3CF809102038C7FADCF58
:104240008091010382FB992790F921E0922790FB4E
:1042500082F990FB83F993CF80910203982F909578
:1042600091708E7F892B90FB81F997CF0E942A183D
:1042700090910103892F97FB87F9805880CF61E0E7
:104280008EE090E00E94A8341FCE60E0F9CF85E375
:1042900056CF85E3DCC480917B028272073DFCE54A
:1042A0001F0778F4033C2CE5120788F0F801E45C62
:1042B000FC45E331F10508F070C0E959FA4C0C9463
:1042C0001C316AE285E20E351D4509F4F5C0F7019F
:1042D0008281C080D180882309F463C1C6010E9415
:1042E000B109182F682FC6010E945809B601812F05
:1042F0000E9495068C01D7011296DC9012971596B4
:10430000CC90C2949FE0C92280913B028770A1F0BB
:10431000AD2CDD2091F0812F807F803421F080E270
:10432000800F883048F082E00E94481680913B025E
:104330008770AA24A3948111A12CB12EB2948FE08E
:10434000B822B8E0BB1609F412C2BB1508F46AC162
:10435000E3E0EB1508F42AC1812F807F1F70F1E0A4
:10436000FB1508F072C1803211F01295107F002306
:1043700009F4A0C1013009F4C2C1DD2009F4CCC1A7
:10438000CC2009F4C2C1D70115968C91159780FFF6
:1043900071C18F7015968C93B8C18091D80280FF3F
:1043A00010C08091DC02809581701F928F9385E60A
:1043B00095E09F938F930E9435060F900F900F907A
:1043C0000F908091DC0280FF39C08E7F8093DC02E9
:1043D0004091DC025091DD026091DE027091DF02BB
:1043E00049875A876B877C87CB01BA010E9471107D
:1043F0008091D80280FF0FC08091DC0281701F92F3
:104400008F938DE295E09F938F930E9435060F90D6
:104410000F900F900F900E9420128091DB0281601C
:104420008093DB025FEF60E772E0515060407040C4
:10443000E1F700C000000E94820C4CCC0E94201DBD
:1044400049CC45E15DE16BE07DE10E94110942CC80
:104450004BE05DE165E17DE1F8CF47EE51E16EEDC6
:1044600071E1F3CF4EED51E167EE71E1EECF4CEF2C
:1044700051E160EF71E1E9CF40EF51E16CEF71E1A3
:10448000E4CF44E152E168E072E1DFCF48E052E17D
:1044900064E172E1DACF4CEB50E169E970E1D5CF2C
:1044A00049E950E16CEB70E1D0CF61E081E00E941E
:1044B000931C10CC65E082E00E943C1D0BCC68E0B0
:1044C00086E0FACF6EE089E0F7CF64E18FE0F4CFC9
:1044D00067E185E1F1CF61E088E1E9CF62E289E15E
:1044E000EBCF61E083E2E3CF0B358DE5180709F4EC
:1044F00054C00C359DE5190748F50130ACE51A07A5
:10450000B9F10F3DBCE51B0709F444C001151C457A
:1045100009F0DDCE0E942A183FEF44E35CE0315001
:1045200040405040E1F700C0000087E797E79093D4
:1045300001088093000888E19AE00FB6F894A895E6
:10454000809360000FBE90936000FFCF0C35FDE5B7
:104550001F0729F10D351D4509F0B9CE80910203E1
:1045600082FB882780F991E089270E942613AFCE2D
:104570009091D802892F8E7F90FF81608093D8021E
:1045800080FF05C08EEA95E00E949C05A3CB8CE9D4
:1045900095E0FACF0E944A1D9DCB81E0E6CF80E0F6
:1045A000E4CFC6010E948709182FA0CE24E0B216DE
:1045B00009F4C3C0AB2DA850BB0B149710F40E9494
:1045C0001609AA20A9F080913B0280FD11C0F701D5
:1045D00012828595859585950E94BB15C7010E941D
:1045E000C61D80913B028595859585950E94EC15A9
:1045F00060E0C7012C960FB6F894DEBF0FBECDBFAA
:10460000DF91CF911F910F91FF90EF90DF90CF90AE
:10461000BF90AF909F908F907F906F905F904F90E2
:104620000C94F30939E0B31609F49EC186E08B0DB2
:104630008F70823008F0BECF023F09F0A4C1812FF5
:104640008F71DD2009F4DDC19BC1882311F0129523
:10465000107FDD20C9F0112369F080E2800F8830DF
:1046600010F001110BC080917B02182B10937B027C
:104670000E945213802F0E9424149CCF80917A02B2
:10468000182B10937A02F4CF802F0E94B3141123B9
:1046900009F490CF80E2800F883010F0011106C03D
:1046A000812F0E94860A0E94521384CF812F0E947C
:1046B0008E0AF9CFDD20B1F090913102812F892B44
:1046C000C11003C00E94241575CF41E0C412FACF77
:1046D0002091020322FD6ECF981709F46BCF8093CF
:1046E000310268CFC11006C00E94960A812F0E9435
:1046F0002E1560CF51E0C51609F45CCFF5CFDD2053
:1047000031F065E06C1508F455CF812FDBCF74E0F4
:104710007C1508F44FCFEACFCC2041F3093349F49C
:10472000BFEFE7EEF3E0B150E040F040E1F700C04A
:104730000000802F0E94B3143DCF812F869586956F
:10474000837061F0813009F035CFC8019370D110CA
:1047500002C090E080E00E9438092CCFC80193701D
:10476000D11002C090E080E00E94220923CF812F67
:10477000837009F07AC0D1101DCF202F2295269585
:104780002770220F220F402F4F7050E070E060E042
:10479000022E04C0440F551F661F771F0A94D2F7DC
:1047A00080E090E0DC0104FF0FC08FE090E0A0E02B
:1047B000B0E004C0880F991FAA1FBB1F2A95D2F72B
:1047C00080959095A095B095E12FE695E695E370DC
:1047D000E23059F1E33009F441C000913202109106
:1047E00033022091340230913502E13099F0842B6C
:1047F000952BA62BB72BAC01BD014023512362237F
:10480000732349875A876B877C87CB01BA010E9443
:10481000A715D0CE042B152B262B372BB901A801B9
:10482000482B592B6A2B7B2BECCF842B952BA62B5B
:10483000B72B409132025091330260913402709153
:1048400035028C019D010427152726273727098764
:104850001A872B873C87C901B801D9CF8A019B01F0
:10486000082B192B2A2B3B2BF2CFDD2009F44CC04F
:1048700010FFA0CE202F229526952770220F220F01
:10488000402F4F7050E070E060E0022E04C0440FF3
:10489000551F661F771F0A94D2F780E090E0DC0175
:1048A00004FF0FC08FE090E0A0E0B0E004C0880FEC
:1048B000991FAA1FBB1F2A95D2F780959095A095A6
:1048C000B095E12FE695E695E370E23059F1E330DB
:1048D000E1F10091360210913702209138023091B7
:1048E0003902E130A1F0842B952BA62BB72BAC011C
:1048F000BD01402351236223732349875A876B8765
:104900007C87CB01BA012DC011FF54CEB3CF042B4D
:10491000152B262B372BB901A801482B592B6A2BB5
:104920007B2BEBCF842B952BA62BB72B40913602FC
:104930005091370260913802709139028C019D01CB
:10494000042715272627372706C08A019B01082B35
:10495000192B2A2B3B2B09871A872B873C87C901E8
:10496000B8010E94B11526CE1F70DD2029F0812FDD
:104970000E94BB15802FA6CE802F0E942E15812F5E
:104980000E94EC1517CE033F60F4003F11F1013F88
:1049900099F1DD2009F458C0C1106CCE812F8F71C0
:1049A00030C0033F89F1043FA1F7DD2009F441C085
:1049B0001F71812F0E94BB158091020382FD07C0E9
:1049C00058E0159FC0011124836080933B02812F22
:1049D00018C025E0D11024E02C1508F4EBCD1F7190
:1049E00081E090E0A0E0B0E004C0880F991FAA1F0A
:1049F000BB1F1A95D2F79ACF812F8F71DD2009F452
:104A0000BFCF0E94BB15D6CD60E070E0CB01DD20AA
:104A100009F4A7CF1F7181E090E0A0E0B0E0AC0105
:104A2000BD0104C0440F551F661F771F1A95D2F7AA
:104A300064CF81E00E94481661E06C1508F0BACDA1
:104A400082E00E944816B6CDCC2059F0093309F017
:104A500070CE7FEF87EE93E0715080409040E1F799
:104A600066CE812F8F718CCF61E0C7010E94F30960
:104A70008C01D70112968C91882389F1809139019C
:104A80008F3FB1F033E2C32E31E0D32EB12CA12CF5
:104A90009924939480913901082E000C990B8A1562
:104AA0009B050CF0EAC8D70112968C918823B9F0C7
:104AB0000F3BBCE51B0709F460C908F0A6C80D3B15
:104AC000FCE51F0709F403C90E3B2CE5120709F4A6
:104AD00025C985E00C3B3CE5130709F4F9C8C8017A
:104AE00097558F3F910511F008F047C0209139018B
:104AF000022E000C330B2817390714F48093390168
:104B0000F701228136E1389F5001399FB00C112402
:104B1000A5014D5D5E4F6A01DA0150962C935097C6
:104B2000928116968C911697992309F47FC91A964B
:104B30001C930E9319978F5F16968C930E949C0A74
:104B4000F6019687858780913102878380917A026A
:104B500090917B02892B80870190F081E02D309726
:104B600041F0D60154966D917C91C501875D9E4FB1
:104B7000099510937D0200937C020E949C0A6C01AF
:104B8000D70112968C91882339F180913C0182FFE4
:104B900005C0B60190E080E00E94641682E00E94A9
:104BA0008E0A0A31BCE51B0709F460C908F04CC93C
:104BB0000831FCE51F0709F497C909312CE51207F4
:104BC00009F49CC980913A0190913B010596073107
:104BD0003CE5130709F48DC9D70112968C9109336E
:104BE000110508F052CA0D32110540F408321105C2
:104BF00008F046CA0430110508F444C9882309F4B2
:104C000060CA80913C0180FF3DC990917B02911167
:104C100039C91093E7020093E602C092E802D092ED
:104C2000E902846080933C0182E00E94481652C8E9
:104C30001111E2C80E94801B4DC80631ECE51E0729
:104C400009F029CB80913002811123CB89E20E94A7
:104C5000790A77CA1F93CF93DF9380917302807F85
:104C6000A9F480917002882389F080913D02C0915F
:104C70003C0270916E0260916F02A0917102B0913E
:104C80007202D62FD72316E0C81304C0DF91CF914C
:104C90001F91089590E0109711F0DF3F19F40196ED
:104CA0008770F2CF189F9001199F300D1124F901E0
:104CB000E25CFD4F41816413F2CF40814713EFCF97
:104CC00042814111ECCF438154814A1B5B0B483C2C
:104CD000510528F7809173028F7080618093730271
:104CE000F901ED5BFD4F80818F70806180838EE6DE
:104CF00092E00E94C61DDF91CF911F910C944E0946
:104D0000AF92BF92CF92DF92EF92FF920F931F93D9
:104D1000CF93DF93CDB7DEB72B970FB6F894DEBFF6
:104D20000FBECDBF8C0185E0F801DE011796019022
:104D30000D928A95E1F7F80180819181E2802EE65B
:104D4000A22E22E0B22E6091710270917202611562
:104D5000710549F030916E0240916F02232F242398
:104D60002F3F09F026C1EE2009F433C18F839887C5
:104D70008F8198850E94330AF82E882309F429C16F
:104D800086E0F801AEE6B2E001900D928A95E1F777
:104D900080916E0290916F020E94270A0E942A263B
:104DA0001DC020917302522F507F683C710508F09E
:104DB000A5C05111C3C0FE2C491322C0381320C016
:104DC000E1101EC02F702061209373028EE692E0E6
:104DD0000E94C61D80917302F80185838F2D2B964A
:104DE0000FB6F894DEBF0FBECDBFDF91CF911F91FC
:104DF0000F91FF90EF90DF90CF90BF90AF9008950C
:104E0000CD2829F0282F29232F3F09F094C020E036
:104E1000F22FF170DF2EE0913D0240913C0256E00E
:104E200020FD1CC0EE20D1F280917302816080933E
:104E30007302F12CD3CF2E2F30E05E9FF0011124AE
:104E4000E25CFD4F6181691306C06081681303C095
:104E500062816E11E7CFF9013196E770E413EBCF71
:104E60008F8398878F8198850E94270A292F229502
:104E70002F70903260F0225F2F70223078F49F7094
:104E800051F0F8019581907F31F4D12C0AC09F70C8
:104E900011F08823D1F3805E8830B8F3C8010E94F6
:104EA000C61DFD2C9BCF8F8398878F8198850E948C
:104EB000330A882309F48DC0EE2009F48AC080915A
:104EC0007302803270F020916E0230916F023A834B
:104ED00029831B82DD82CC828E83CE0101960E94C3
:104EE000C61D86E0F801AEE6B2E001900D928A950B
:104EF000E1F70E942A26FF24F39470CF511132C0AB
:104F00008EE692E00E94C61D86E0F50111928A9518
:104F1000E9F78FCF8F8398878F8198850E94330A16
:104F20008111DFCF80917302816080937302C80189
:104F30000E94C61D53CF21E02E256ACF4913B3CF5F
:104F40003813B1CFE110AFCFF8012583C8010E941B
:104F5000C61D86E0F801AEE6B2E001900D928A959A
:104F6000E1F73CCF49139FCF38139DCFE1109BCF82
:104F7000F8012583C8010E94C61D86E0F501119243
:104F80008A95E9F72BCF4913C5CF3813C3CF80914A
:104F9000730280FDDECF982F907FD9F2F8018583D0
:104FA000903FA1F2982F907F905F8F70892B85831F
:104FB000CDCFC380D480F0907002F601E61BF70BD2
:104FC000BF01F110EECE683C7105B8F6FE2CE11081
:104FD000DACFC8010E94C61D8ECF1F93CF93DF93F7
:104FE000CDB7DEB767970FB6F894DEBF0FBECDBF63
:104FF0004B8B5C8B962F6D8B7E8B8F8B6111109200
:105000007A021A8A85E0FE017396DE011D960190F0
:105010000D928A95E1F79F8786E0FE013D96DE01BD
:10502000179601900D928A95E1F7CE0107960E949E
:105030008026882389F016E080913D0290913C0201
:10504000891349C067960FB6F894DEBF0FBECDBF77
:10505000DF91CF911F91089586E0FE013796DE0122
:10506000119601900D928A95E1F78A859B85892B8F
:1050700011F38F81988589238F3FE9F220913C02BB
:1050800030E0C90101968770992740913D02481789
:10509000190671F40E942A1810923C0210923D02E7
:1050A00086E0EEE6F2E0DF011D928A95E9F7C3CFD4
:1050B00096E0929FD001939FB00D1124A25CBD4F4A
:1050C000FE01319601900D929A95E1F780933C0292
:1050D0000E944E09B0CF819FC0011124825C9D4F78
:1050E0000E948026882309F4ADCF80913D0290E094
:1050F00001968770992780933D029ECF90E080E0D3
:105100000E94A2348A3E9E4F51F00E944A1D809117
:105110007E028470896280937E020E94211386E061
:1051200090E00E94943480937E02803320F0877058
:10513000886280937E0290917E02892F817090FF19
:1051400004C0892F8695869586950C94171B1F930E
:10515000CF93DF93EC01162F8F8180FF0BC08881E6
:105160009091DC0280FF21C091609093DC028695D3
:105170000E94931C8F8181FF06C0212F4B816A8181
:1051800089810E94DF108F8182FF05C08E81882374
:1051900091F10E946C1C8F8183FF03C081E080939A
:1051A000D502DF91CF911F9108959E7F9093DC02ED
:1051B0008091D80280FF0CC01F921F9283E097E07D
:1051C0009F938F930E9435060F900F900F900F9032
:1051D0000E9420128091DB0281608093DB022FEF1E
:1051E00080E792E0215080409040E1F700C000004D
:1051F0000E94820CBFCF0E942012CDCFCDB7DEB768
:1052000029970FB6F894DEBF0FBECDBF84B7877F56
:1052100084BF0FB6F894A895809160008861809350
:105220006000109260000FBE80E890E00FB6F89426
:1052300080936100909361000FBE85B7806885BF41
:1052400085B7806885BF8FE090E19093CB01809314
:10525000CA010E94850B0E94FE0B8091E2008460CF
:105260008093E20078948091E1028823A1F010916C
:10527000E9001F709091EC00892F817090FD80E80B
:10528000182B1092E9008091E80083FD0E943518E8
:105290001F701093E90082E084BD93E095BD9AEF02
:1052A00097BD80936E001092FE011092FF01109244
:1052B0000002109201020E945F0C91E08927809306
:1052C000040180910401882309F4C5C110921301DF
:1052D00086E0809314010E945F0C81110E94692E68
:1052E000809104018091040195E0811190E09093F8
:1052F000F60285E0891B8093EA0287E90E944B0849
:1053000086EC0E944B0884E30E944B0882E90E94CD
:105310004B0884E90E944B0886EF0E944B0887EFF8
:105320000E944B0881E30E944B0883E30E944B08D4
:1053300082E30E944B0886E30E944B088AE0E7EF75
:10534000F2E0DF01282F1D922A95E9F7ECEEF2E05A
:10535000DF011D928A95E9F790E080E00E94A23477
:105360008A3E9E4F11F00E944A1D82E090E00E940A
:1053700094348093D8020E94131390930203809375
:10538000010383E090E00E949434282F30E050E045
:1053900040E02E833F8348875987CA01B9010E94A4
:1053A000A715259A2D9882E88093800089E1809343
:1053B00081008FEF9FEF90938700809386000E947B
:1053C0007E280E945F0C811102C00E946F2E0E94F5
:1053D0007E288091E3018111EAC08091D80280FF8C
:1053E00014C08FE393E09F938F930E9435068091C2
:1053F000D8020F900F9080FF08C089E293E09F933E
:105400008F930E9435060F900F9090E080E00E94ED
:10541000A2348A3E9E4F81F08091D80280FF08C05E
:1054200081E093E09F938F930E9435060F900F9039
:105430000E944A1D0E94851088E090E00E949C34E2
:105440006093DC027093DD028093DE029093DF02B2
:105450008091DB0283608093DB026E7FD1F48091C8
:10546000D80280FF08C088EB92E09F938F930E9440
:1054700035060F900F900E94851088E090E00E9402
:105480009C346093DC027093DD028093DE02909383
:10549000DF020E9401098091D80280FF76C08FE967
:1054A00092E09F938F930E9435068091D8020F90CF
:1054B0000F9080FF6AC08091DC0281701F928F93F1
:1054C00082E892E09F938F930E9435068091D802E4
:1054D0000F900F900F900F9080FF57C08091DC02CB
:1054E00086951F928F9387E692E09F938F930E94F9
:1054F00035068091D8020F900F900F900F9080FF8B
:1055000044C08091DD021F928F938DE492E09F93BF
:105510008F930E9435068091D8020F900F900F90C4
:105520000F9080FF32C08091DE021F928F9383E341
:1055300092E09F938F930E9435068091D8020F903E
:105540000F900F900F9080FF20C08091DF021F927C
:105550008F9389E192E09F938F930E94350680910B
:10556000D8020F900F900F900F9080FF0EC0809187
:10557000E0021F928F938DEF91E09F938F930E9493
:1055800035060F900F900F900F901092DA028091D5
:10559000DB0284608093DB028091DC0280FF04C028
:1055A00060E086950E94931C81E08093E30185E092
:1055B00091E0909379028093780280ED93E00E94CD
:1055C0009C0590E6492E93E0592E8091E1028530AA
:1055D00081F48CEC93E00E949C0500E112E1809143
:1055E000E1028530E1F10E942A180E947E280E9483
:1055F00016090E94B01681110E94A80AB8EECB2E9F
:10560000B1E0DB2E1CEE612E12E0712E10E000E006
:1056100088E5A82E83E0B82E0E83F30131903F0178
:10562000D6012D906D01231057C00F5F1F4F0A3018
:10563000110591F78FEF89838A831B820E949C0A50
:105640008160782F9D838C8349815A816B818D8104
:105650000E94ED276BC086E0809313013ACE8091C3
:10566000E102843039F180E00E94171B109206029B
:1056700048E150E080E40FB6F894A89540936000AC
:105680000FBE8093600083B7817F846083BF83B740
:10569000816083BF7894889583B78E7F83BF0FB670
:1056A000F894A895809160008861809360001092C2
:1056B00060000FBE8091F201882309F490CF0E9410
:1056C000B016ECEEF2E0819181117DC1A6EFB2E05F
:1056D000AE17BF07C1F783CF8091D80281FDD1C03B
:1056E0002324E12CFF24F394822D8F2109F4F9C0A7
:1056F0000E945F0C8823A1F0E9824E814A833F20FB
:1057000081E009F480E08B830E949C0A8160782FFD
:105710009D838C8349815A816B818D810E94ED2705
:10572000F801E851FE4F8081F826F0828091DA027C
:10573000882309F477C08091D902E091DC02E695D4
:10574000E81BE093D402823009F0D1C0F0E0E255CA
:10575000FC4FE4910E2F10E0F0E0EF2EFDE0FF2E65
:105760008091D502882361F01092D5020E94631CBB
:105770009093D3028093D2021092D7021092D60255
:105780000E94631C9C018091D2029091D302D901A6
:10579000A81BB90BCD018F3F9F4708F043C08091F4
:1057A000E601882311F11092E6018091E4019091C5
:1057B000E501281B390B2F3F3F47B8F4805D9A481D
:1057C0009093E5018093E4018091D80280FF08C0A6
:1057D00084E793E09F938F930E9435060F900F907C
:1057E0008091DB0288608093DB02C090D602D0906B
:1057F000D702E091D202F091D3020E0F1F1F109337
:10580000D3020093D20282ED92E0F70109958091D4
:10581000D6029091D702892B29F4CD2819F081E086
:105820008093E6010E9416099091E701891709F417
:10583000CCCE0E941609182F8093E7018091D802E0
:1058400082FFC3CE80FFC1CE89EB93E00E949C050E
:105850008091D80280FFB9CE1F921F9384EB93E012
:105860009F938F930E9435068091D8020F900F90DE
:105870000F900F9080FFA9CE82EB93E00E949C05D1
:10588000A4CE85E693E00E949C05ACEE8A2EA2E0B1
:105890009A2EF12CE12CFF92EF925F924F920E9490
:1058A00035068DE593E00E949C05F40181914F013E
:1058B0000E943E061F928F93BF92AF920E943506C0
:1058C00086E593E00E949C05FFEFEF1AFF0A0FB6F2
:1058D000F894DEBF0FBECDBF3AE0E316F104D9F66F
:1058E000FFCEE394FF0C56E0E512FECE9ECE86304E
:1058F00059F4F0E0E555FC4FE4910E2F10E0E4E19F
:10590000EE2EEDE0FE2E2CCF893061F4E695F0E02E
:10591000E855FC4FE4910E2F10E074E6E72E7DE091
:10592000F72E1ECF8F3061F4E695F0E0EB55FC4F7B
:10593000E4910E2F10E061EAE62E6DE0F62E10CF16
:10594000853159F4F0E0EE55FC4FE4910E2F10E054
:1059500056E3E52E5EE0F52E03CF08E210E02FEBD4
:10596000E22E2EE0F22E883109F4FACE833249F489
:10597000E0EAF3E00591149144E2E42E4DE0F42EC8
:10598000EFCE04EF11E097E6E92E9FE0F92E843286
:1059900009F4E6CE853281F48E2F63E00E94DA307E
:1059A000E92FF0E0E356FC4FE4910E2F10E034E3D2
:1059B000E32E32E1F32ED4CE00ED17E080E1E82EA5
:1059C00089E0F82ECDCE09BD19BD09B400FEFDCF8A
:1059D0008091D8008F7D8093D8008091E000826014
:1059E0008093E0008091E00081FDFCCF0E942A18A6
:1059F000F6CD1F920F920FB60F9211242F933F9363
:105A00004F935F936F937F938F939F93AF93BF93C6
:105A1000EF93FF938091E10082FF15C08091E20037
:105A200082FF11C08091E1008B7F8093E100209183
:105A3000D7012F5F822F62E30E94DA30992309F4A5
:105A4000BCC02093D7018091DA0080FF28C08091EC
:105A5000D80080FF24C08091DA008E7F8093DA0026
:105A60008091D90080FFDFC080E189BD82E189BDDE
:105A700009B400FEFDCF81E08093E10289EE91E060
:105A80000E949C058091DA01811109C00E94850B5A
:105A90000E94FE0B8091E20084608093E20080917E
:105AA000E10080FF1BC08091E20080FF17C0809161
:105AB000E2008E7F8093E2008091E200806180931B
:105AC000E2008091D80080628093D80019BC85E004
:105AD0008093E10281EF91E00E949C058091E100BA
