:100000000C9405050C94321B0C944C050C944C0577
:100010000C944C050C944C050C944C050C944C051C
:100020000C944C050C944C050C94FD2E0C94D02F84
:100030000C946A290C944C050C944C050C944C05BA
:100040000C944C050C944C050C944C050C944C05EC
:100050000C944C050C94B5290C944C050C944C054F
:100060000C944C050C944C050C944C050C944C05CC
:100070000C944C050C944C050C944C050C944C05BC
:100080000C944C050C944C050C944C050C944C05AC
:100090000C944C050C944C050C944C050C944C059C
:1000A0000C944C050C944C050C944C052E001E0031
:1000B0001F002000210022002B0014001A0009005C
:1000C00013000500294204001500160017000A005D
:1000D00000571D001B00060007001900000000006B
:1000E000E100E0002A42E3002D0027002600250061
:1000F00024002300310033001C0018000F000D0005
:10010000340012000C00080011000E00E500380059
:10011000370036000B001000000000004C00E20029
:100120002C0028002900010001000100010001004D
:10013000010014001A000800150017000100040057
:100140001600070009000A0001001D001B00060040
:100150001900050000000000010001002C002C0027
:100160000100010001000100010001000100130075
:1001700012000C0018001C00010033000F000E00DC
:100180000D000B0001000100010001001000100033
:1001900000000000010001002A00280045003A008C
:1001A0003B003C003D003E0001001E021F022F02EA
:1001B000300231020100200221022602270235000E
:1001C0000100220223022F0030003502000000004F
:1001D0000100E000E2000100440043004200410051
:1001E00040003F0080002F00260025002400520020
:1001F0008100010023002200210051007F00E60061
:1002000020001F001E002402000000000100270043
:100210004F00500044454255473A2064697361627B
:100220006C65642E0A0044454255473A20656E616C
:10023000626C65642E0A0000000000000000002AC5
:100240002B2800000000000000000000000000005B
:10025000000029000000002C1E3420212224342616
:1002600027252E362D3738271E1F2021222324250F
:10027000263333362E37381F0405060708090A0BC4
:100280000C0D0E0F101112131415161718191A1B36
:100290001C1D2F3130232D350405060708090A0BD4
:1002A0000C0D0E0F101112131415161718191A1B16
:1002B0001C1D2F3130354C000000000000000000F4
:1002C00000000000000000000000007E0F00D4FFCE
:1002D000FFFFC7000000780A0025303862003A208E
:1002E0000025303258000A722F6320303132333407
:1002F0003536370A007267626C6967687420746902
:100300006D65722064697361626C652E0A007267A4
:10031000626C696768742074696D657220656E61CE
:10032000626C65642E0A007267626C69676874208B
:1003300073657420687376205B4E4F454550524F6D
:100340004D5D3A2025752C25752C25750A007267A0
:10035000626C696768742073657420687376205BCB
:10036000454550524F4D5D3A2025752C25752C255D
:10037000750A007267626C69676874207261696EE1
:10038000626F7720736574206873763A2025642C39
:1003900025642C25642C25750A007267626C6967D8
:1003A00068742064697361626C65205B45455052D6
:1003B0004F4D5D3A207267626C696768745F636F66
:1003C0006E6669672E656E61626C65203D202575DD
:1003D0000A007267626C6967687420656E61626C9E
:1003E00065205B454550524F4D5D3A207267626C07
:1003F000696768745F636F6E6669672E656E6162B8
:100400006C65203D2025750A007267626C6967681B
:100410007420746F67676C65205B454550524F4D83
:100420005D3A207267626C696768745F636F6E66BD
:1004300069672E656E61626C65203D2025750A0036
:100440007267626C69676874206D6F6465205B4ECB
:100450004F454550524F4D5D3A2025750A00726751
:10046000626C69676874206D6F6465205B454550F8
:10047000524F4D5D3A2025750A007267626C6967BC
:1004800068745F696E6974207267626C696768740A
:100490005F636F6E6669672E6D6F6465203D203007
:1004A0002E2057726974652064656661756C7420CE
:1004B00076616C75657320746F20454550524F4DC1
:1004C0002E0A007267626C696768745F696E69748E
:1004D000206565636F6E666967206973206E6F744F
:1004E00020656E61626C65642E0A007267626C69D9
:1004F0006768745F696E6974207374617274210A2D
:10050000007267626C696768745F696E6974206302
:10051000616C6C65642E0A007267626C696768744E
:100520005F636F6E6669672E7370656564203D203A
:1005300025640A007267626C696768745F636F6E36
:100540006669672E76616C203D2025640A0072671B
:10055000626C696768745F636F6E6669672E73614A
:1005600074203D2025640A007267626C69676874B4
:100570005F636F6E6669672E687565203D20256430
:100580000A007267686C696768745F636F6E66699A
:10059000672E6D6F6465203D2025640A00726762D6
:1005A0006C696768745F636F6E6669672E656E61FC
:1005B000626C65203D2025640A007267626C696781
:1005C00068745F636F6E66696720454550524F4D92
:1005D0003A0A0000047F3F1F643214643214783CEE
:1005E0001E1E140A052223252628292A2C2D2F30E9
:1005F00032333536383A3B3D3E4042434547494A1F
:100600004C4E5051535557595A5C5E60626466684F
:10061000696B6D6F71737577797B7D7F818385875A
:10062000898A8C8E90929496989A9C9E9FA1A3A55D
:10063000A7A8AAACAEAFB1B3B4B6B8B9BBBCBEBF85
:10064000C1C2C3C5C6C7C9CACBCCCDCED0D1D2D208
:10065000D3D4D5D6D7D7D8D9D9DADADBDBDBDCDC13
:10066000DCDCDCDDDDDDDDDCDCDCDCDCDBDBDBDACB
:10067000DAD9D9D8D7D7D6D5D4D3D2D2D1D0CECD36
:10068000CCCBCAC9C7C6C5C3C2C1BFBEBCBBB9B843
:10069000B6B4B3B1AFAEACAAA8A7A5A3A19F9E9CC8
:1006A0009A98969492908E8C8A89878583817F7D93
:1006B0007B79777573716F6D6B6968666462605E74
:1006C0005C5A5957555351504E4C4A49474543423D
:1006D000403E3D3B3A3836353332302F2D2C2A29D7
:1006E0002826252322FFAA7F55406261636B6C692F
:1006F00067687420737465703A2025750A0062611A
:10070000636B6C696768742064697361626C650A05
:10071000006261636B6C6967687420656E61626C0E
:10072000650A006261636B6C6967687420746F6747
:10073000676C653A2025750A006261636B6C6967B6
:1007400068742064656372656173653A2025750A73
:10075000006261636B6C6967687420696E637265BF
:100760006173653A2025750A00000101010101014C
:100770000101010202020202020202020303030358
:100780000303030304040404040404050505050528
:1007900006060606060707070707080808080909E6
:1007A00009090A0A0A0B0B0B0C0C0C0D0D0D0E0E91
:1007B0000E0F0F0F10101111111212131314141524
:1007C0001516161717181819191A1A1B1B1C1D1D98
:1007D0001E1E1F20202122222324242526262728EE
:1007E00029292A2B2C2D2D2E2F303132323334351E
:1007F000363738393A3B3C3D3E3F40414243444521
:10080000464748494A4C4D4E4F50515354555658FF
:10081000595A5B5D5E5F616264656668696B6C6DA9
:100820006F7072737577787A7B7D7E80828385871F
:10083000888A8C8E8F91939596989A9C9EA0A2A35D
:10084000A5A7A9ABADAFB1B3B5B7BABCBEC0C2C462
:10085000C6C9CBCDCFD1D4D6D8DBDDDFE2E4E7E922
:10086000EBEEF0F3F5F8FAFDFF0A002530325820E0
:10087000006B6579626F6172645F7265706F72742C
:100880003A20000A0025303258006B6579626F61AA
:1008900072645F7365745F6C65643A20005B735DBE
:1008A000004B6579626F6172642073746172742E9B
:1008B0000A005B575D005B535D005B525D005B446B
:1008C0005D005B435D0004033000000026034B0025
:1008D00065006500620069006F0020004900720039
:1008E0006900730020005200650076002E00200091
:1008F000320000000E034B006500650062006900D5
:100900006F0000000403090409025B00030100A05A
:10091000FA0904000001030101000921110100018D
:100920002240000705810308000A090401000103B1
:100930000000000921110100012232000705820395
:1009400020000A090402000203000000092111012D
:10095000000122220007058303200001070503038D
:10096000200001120110010000000810CB562200E7
:1009700002010203010631FF0974A1010975150086
:1009800026FF009520750881020976150026FF00D4
:10099000952075089102C005010980A10185031900
:1009A000012AB700150126B700950175108100C016
:1009B000050C0901A101850419012AA002150126CF
:1009C000A002950175108100C005010906A101056D
:1009D0000719E029E71500250195087501810295A1
:1009E00001750881010507190029FF150026FF0080
:1009F00095067508810005081901290595057501F9
:100A00009102950175039101C00011241FBECFEF23
:100A1000DAE0DEBFCDBF04B603FE27C08091F4024A
:100A20009091F502A091F602B091F7028730904BB9
:100A3000A740B04BD1F41092F4021092F50210923C
:100A4000F6021092F70214BE84B7877F84BF0FB6F8
:100A5000F894A8958091600088618093600010925E
:100A600060000FBEE0E0F8E3099511E0A0E0B1E01E
:100A7000E6E3FBE602C005900D92A63EB107D9F76A
:100A800022E0A6EEB1E001C01D92A43FB207E1F75B
:100A90000E94282C0C944F350C940000FF93EF9388
:100AA000E091E601F091E701309709F00995EF91A7
:100AB000FF910895FC018591803011F0EFDFFBCFAD
:100AC0000895FF27E0E230E247FF0CC0419597FF11
:100AD00009C0EDE26095709580959095611D711D3E
:100AE000811D911D27FF02C0219530E350E2AA2706
:100AF000660F771F881F991FAA1FA41710F0A41B49
:100B000063955A95A9F7AA3008F0A95FA05DAF9345
:100B1000F395611571058105910541F7ED3211F4E9
:100B2000EF93F395F21718F43F93F395FBCF8F9162
:100B3000B5DFFA95E1F70895E991F9918591803053
:100B400021F0853219F0AADFF9CF089520E0E8946A
:100B500055915532C1F3503311F4689455915A337D
:100B600048F4505390F3220F022E220F220F200D33
:100B7000250FF4CF0EF4219589919991533619F3ED
:100B8000533729F1533559F1BC0188279927E89447
:100B90005C3621F48991999168945591543639F4D1
:100BA00046EF7EF077FF0DC08FEF9FEF0AC05537FD
:100BB0004AE039F0583540E121F0523642E009F080
:100BC0000895FF93EF937DDFEF91FF91B7CFFF93F0
:100BD000EF93FC0181918030B9F360DFFBCFFF938D
:100BE000EF9368DFF1CFDF93CF93CDB7DEB72596D4
:100BF000A3DFCF91DF910895CF93DF93EC0188813C
:100C00008430E0F08091E8019091E901019761F46E
:100C100081E00E9469251092E9011092E801CE015D
:100C2000DF91CF910C94621881E00E94382581E019
:100C300090E09093E9018093E801F1CF81EEDF919C
:100C4000CF910C94671D81EE0C94F01DCF93DF9330
:100C50009C01FB019A9581159F4160F5E901CC2724
:100C6000D170D901AA27B270B90166277470A901A1
:100C70004427587034FF10C080E1CD2B09F480E088
:100C8000AB2B09F08062672B09F08064452B09F0DB
:100C90008068DF91CF91099481E0CD2B09F480E049
:100CA000AB2B09F08260672B09F08460452B89F338
:100CB0008860EFCFDF91CF910895CF93DF93EC0160
:100CC000805E9109089720F06BED70E2209711F497
:100CD00062E57EE1CE010E9426068C2FDF91CF9146
:100CE0000C94671DCF93DF93EC010E94F01DCE01A1
:100CF000805E9109089720F062EE70E2209711F46F
:100D000069E57EE1CE01DF91CF910C942606CF9369
:100D1000DF93D82FC92F0E945D068D2F9C2FDF9166
:100D2000CF910C94720681E0089581E008950C94AF
:100D3000950608950C9499061F93CF93DF9300D0E6
:100D400000D00F92CDB7DEB749835A836B833091C1
:100D5000210289819A8131111DC06623B9F02223B5
:100D6000A9F00E94A126182F682F89819A810E94DC
:100D7000482669817A81812F0F900F900F900F90F4
:100D80000F90DF91CF911F910C943D080E94772620
:100D9000182FEFCF0E94A12669817A81EDCFFC0147
:100DA000262F408151816281738184810C949C063D
:100DB000CF93DF93D82FC92F60E00E94CF066D2F0D
:100DC0007C2FDF91CF910C949A06FF920F931F9383
:100DD000CF93DF93E82FF0E0E95CFD4FF490C82F4C
:100DE000C695C695C695D0E0FE01E953FD4F049126
:100DF000877010E0082E02C0159507950A94E2F757
:100E000001701127C954DD4FFE01C491D0E002C02A
:100E1000D595C7958A95E2F7C170DD2701151105B3
:100E200019F081EE0E94671D209719F086EE0E944E
:100E3000671D8F2D0E943F1ECD2B19F086EE0E945C
:100E4000F01D012B41F081EEDF91CF911F910F91A9
:100E5000FF900C94F01DDF91CF911F910F91FF90A7
:100E60000895EF92FF920F931F93CF93DF93EC01BE
:100E7000162F0AE08881882309F456C0813009F0D2
:100E800050C08981813061F47E0122E0E20EF11CC4
:100E9000CA818C2F0E94671D8C2F0E94F01D09C0F3
:100EA000823099F47E0182E0E80EF11C8A810E9472
:100EB000671DE7012196812F8150E0F2EFE9FFE005
:100EC0003197F1F700C00000F7CF833031F47E0195
:100ED000E2E0EE0EF11C8A81E0CF843011F0219621
:100EE000E9CF2A81229690E080E0AE014F5F5F4F0C
:100EF0002053330B2A30310548F00197D8F2EFE93F
:100F0000FFE03197F1F700C00000F7CF089FB00174
:100F1000099F700D1124C901860F971F2981EA01CD
:100F2000E4CF0E94E506C6CFDF91CF911F910F91CC
:100F3000FF90EF90089560E00C9431070E940C2818
:100F4000811102C00E94B2280E9448160C94400AE7
:100F50000E9448190C94430A08950C94AC0781E050
:100F600008950C94AF07CF93C82F0E94AD078C2F24
:100F7000CF910C94B10708950E94FB200E94BB07FB
:100F80002FEF84E39CE0215080409040E1F700C0C7
:100F900000000C94D9290F931F93CF93DF93EC019A
:100FA00061E00E94CF068C01BE010E94A718BE011D
:100FB000C8010E9497068823D1F1BE01C8010E9492
:100FC000A2158823A1F1BE01C8010E94EE18882352
:100FD00071F1BE01C8010E94131A882341F1BE01BC
:100FE000C8010E940617882311F1BE01C8010E94A2
:100FF0004A178823E1F0BE01C8010E941D1888230A
:10100000B1F0BE01C8010E94F413882381F08A81E7
:10101000882341F101308CE5180779F00E3D8CE50D
:101020001807E9F001151C45E9F40E94BC0780E0AF
:10103000DF91CF911F910F91089590919702892F81
:101040008E7F90FF81608093970280FF05C086E2CB
:1010500092E00E945A05EBCF84E192E0FACF0E9421
:10106000B228E5CFCE01DF91CF911F910F910C9463
:10107000930690E080E008950895972F70E026E0B1
:10108000929F600D711D1124FB019CE3899FE00D6F
:10109000F11D1124EE0FFF1FE455FF4F8591949130
:1010A0000895FC01EE0FFF1FE952FD4F85919491C9
:1010B0000895CF93DF930E943D080E946409EC01DC
:1010C000811521E5920708F048C0811530E59307A6
:1010D00008F0AFC0803E910518F5803C910508F0FE
:1010E00096C0883A910570F4853A910508F08CC055
:1010F0008130910531F10497813A910510F1D0E0EA
:10110000C0E01FC08F3B9105D1F3C85AD0E0CC0F8F
:10111000DD1FC05CDE4F0990D881C02DD46411C0A2
:10112000811540E3940788F4C11580E2D80708F0E0
:1011300074C0C83ED10528F0CE019A9581159F4113
:10114000F0F6CE01DF91CF910895811530E4930739
:1011500008F466C0DF70D06AF4CF8115964560F55B
:10116000C11585E5D80708F096C0C11594E5D907E3
:10117000F0F4C11523E5D20708F079C0C11532E5B6
:10118000D30708F46FC0CE018370992721E030E0C7
:1011900002C0220F331F8A95E2F7C695C69540E23A
:1011A000C49FE0011124C22BD32BDC68CACFDC2FF3
:1011B000CC27C46FD06AC5CFC1158AE5D80788F49B
:1011C000C11599E5D90708F071C0CE0198558F3F38
:1011D000910511F008F093CFDC2FCC27C06FD06AB7
:1011E000B0CFCE0190568115904208F088CF8D2F58
:1011F0008F710E94FC0990E0982F882788279F71A3
:101200009C012C2BE90150C0A497D0649ACF805C3C
:1012100091090E945108EC0194CFCE019F70F9CF43
:101220009927D3FF03C0EC01D86C8BCFEC01D06CB5
:1012300088CF74E0969587957A95E1F783702C2F87
:1012400026952695237040E2249F90011124382B87
:101250008C2F8370C1E0D0E002C0CC0FDD1F8A95D7
:10126000E2F7A1CFDC2FCC27C16FD06A6ACFCE01C5
:101270008370992721E030E002C0220F331F8A9546
:10128000E2F7C695C69580E2C89FE0011124C22B03
:10129000D32BDA6856CF8C2F0E94FC09C82FD0E0E0
:1012A000DC2FCC27CC27DF71D0624BCF8C2F8F70F7
:1012B0000E94FC0934E0D695C7953A95E1F7CF70C6
:1012C000DC2FC82FD0693DCF803E910599F1C8F43D
:1012D0008133910509F476C048F48932910509F407
:1012E0006AC08A32910509F474C008958933910562
:1012F000D1F082389105B9F08533910509F454C0D5
:101300000895843E910599F138F4823E9105F9F0F3
:10131000833E910509F10895863E910599F1873E36
:101320009105B9F108952091E5022370A1F080EEB6
:1013300090E008952091E50220FD52C03091E60230
:1013400030FF09C024FF4FC090E080E004C020912E
:10135000E50222FDF7CF08952091E50222FD46C067
:101360003091E60230FDE3CF24FFF5CFEDCF2091A1
:10137000E60221FFF0CF8091E50284FDE5CF87EE04
:1013800090E008952091E50223FFE5CF24FDDCCF16
:10139000F6CF2091E50223FD2CC03091E60231FF0B
:1013A000E3CF84EE90E008952091E50225FFD3CFAE
:1013B00089E290E008952091E50225FFCCCF85E3F6
:1013C00090E008952091E50226FFC5CF8AE290E0E3
:1013D00008952091E50226FFBECF81E390E00895B5
:1013E00089E390E0089583EE90E0089582EE90E026
:1013F000089586EE90E008959091E50292FF06C070
:10140000282F28712830F9F4877F846093FF06C065
:10141000282F28712831F1F4877E84612091E6021B
:1014200020FF06C0382F38713830D9F4877F8160AB
:1014300021FF06C0282F28712831D1F4877E8161D1
:1014400094FD877E0895282F24712430F9F68B7F30
:101450008860DCCF282F2471243101F78B7E8861CE
:10146000DDCF382F3171313019F78E7F8860E0CFB2
:10147000282F2171213121F78E7E8861E1CF0895D7
:101480000C943F0A08950C94420AE82FF0E0EF54C0
:10149000FD4F80810895CF92DF92EF92FF920F93DC
:1014A0001F93CF93DF9386EE92E00E945A0581EB63
:1014B000E82E82E0F82ED0E0C0E091EEC92E92E056
:1014C000D92E09ED12E0DF93CF93DF92CF920E94E5
:1014D000F3058EED92E00E945A05F70181917F019C
:1014E0000E94F8271F928F931F930F930E94F3057A
:1014F00087ED92E00E945A0521968DB79EB7089617
:101500000FB6F8949EBF0FBE8DBFCA30D105D9F675
:10151000DF91CF911F910F91FF90EF90DF90CF90CF
:10152000089580EA8A95F1F7089508950E94FC0BCA
:10153000809116018091160195E0811190E09093C1
:10154000BC0285E0891B8093BB02A4E7B1E061E0A7
:1015500070E08D91E82FE295EF70F0E041A18F707F
:101560009B0101C0220F8A95EAF7922F9095942350
:1015700091A382A1822B82A381E0A937B80749F702
:10158000AEE6B1E061E070E08D91E82FE295EF709A
:10159000F0E041A18F709B0101C0220F8A95EAF70C
:1015A000922F9095942391A382A1822B82A381E014
:1015B000A437B80749F7E7EAF2E0A1EBB2E081EB24
:1015C00092E011921D928E179F07D9F785E00E9435
:1015D000A80B0E949E070C94060C0E94DF0B882328
:1015E000F9F08091BB0290E08F549D4F0E94190C3E
:1015F000811113C08091EA018F5F8093EA018630E8
:1016000050F0E091BB02F0E0EF54FD4F10821182E8
:101610001282138214820C94A8071092EA01FBCF65
:101620008091BC0290E08F549D4F0E943E0C0C9420
:10163000950A5F926F927F928F929F92AF92BF9224
:10164000CF92DF92EF92FF920F931F93CF93DF938E
:1016500087EAE82E82E0F82E94E7892E91E0992E11
:10166000712CAA24A394B12CD7015D907D01FD01BA
:1016700012928F01D4018D914D01C82FC295CF7068
:10168000D0E099A18F70650101C0CC0C8A95EAF772
:10169000892F8C2989A38AA16C2C609486218AA326
:1016A0000E94910AEEE6F1E030E020E04191A42FA3
:1016B000A295AF70B0E090968C91D8015C9190E0CB
:1016C0004F7002C0959587954A95E2F780FD3EC020
:1016D0008A2D022E01C0880F0A94EAF7852BD801C3
:1016E0008C932F5F3F4F2630310501F789A1682287
:1016F00069A28AA1C82ACAA281E09C91951101C061
:1017000080E0782ABCEAEB16B2E0FB0609F0ACCF29
:101710006091BC0270E06F547D4F272D45E087EA51
:1017200092E00E94A90B0E94ED0A872DDF91CF91D4
:101730001F910F91FF90EF90DF90CF90BF90AF90EF
:101740009F908F907F906F905F90089580E0C6CFBC
:101750000895FF920F931F93CF93DF93F82E092FD5
:10176000162FD72FC42F222349F081E08093ED015B
:101770000E949A299093EC018093EB018091ED01F6
:101780008823A1F08091EB019091EC010E94A629A1
:10179000069760F0EF2DF02FA12FBD2FCE0FDF2F7A
:1017A000D11DEC17FD0741F41092ED01DF91CF91AF
:1017B0001F910F91FF90089581918D93F2CF8091A9
:1017C000EE01811110C08091D80080618093D80013
:1017D0008AE18A95F1F700C09091D900917082E07A
:1017E000891B8093EE0181E09091EE01913009F028
:1017F00080E008950C94DF0B0E94FA0B8093160191
:101800000E94DF0B81110C940D0C08950E94DF0BD8
:10181000811102C00C94130C089561E070E087E11F
:1018200091E00C94E31A61E070E087E191E00C94A0
:10183000EA1ACF93DF93D82FC92F0E94841B9C01F3
:1018400080E021153105A9F4ED2FFC2FD901AF500F
:10185000BE4F8C9181932F5F3F4F25303105B1F7FB
:101860000E946314882341F00E9467148093F00162
:1018700081E0DF91CF91089580E0F8CFFC0190E006
:1018800080E02191DC01AF50BE4F2C930196853052
:101890009105B9F78091F0010C94DA15AF92BF92DF
:1018A000CF92DF92EF92FF920F931F93CF93DF932C
:1018B000362F472FE82FF0E0E759F84F71110EC08F
:1018C0006491762F862FDF91CF911F910F91FF901A
:1018D000EF90DF90CF90BF90AF900895C72FD0E0EA
:1018E000249186E0689F700111240FEF10E0C7017A
:1018F000B8010E94AB31832F90E0880F991F35E526
:10190000369FF001379FF00D11248E1B9F0B982FEF
:10191000990F980FF801EC1BFD0B2E9FD0012F9F04
:10192000B00D1124EB2F949FA0011124452F5527B2
:101930006801C41AD50AA601249F6001259FD00C16
:1019400011248D2D5801A91AB108AC9EA001AD9E9D
:10195000500DBC9E500D1124452F5527041B150B0F
:10196000209FA001219F500D112463307105D9F0F3
:101970009CEFE91693E0F90668F461307105B9F05F
:1019800062307105C1F09FEFE916F10448F48B2F26
:10199000E52F06C06430710589F066307105B9F332
:1019A0006E2F722F90CFED2D822F2B2FF9CFE22F9C
:1019B0002D2D8B2FF5CF852FE22FF7CF822F252FBF
:1019C000EFCF0895CF93DF93982F762F842FE901DF
:1019D000692F0E944E0C798368838A83DF91CF91AF
:1019E00008958091BD02982F9E7F29F481708260B6
:1019F0008093BD0208958A34E8F381708864F8CF3B
:101A000088E090E00C94D8340F931F93CF93DF932A
:101A10008B01D82FC92F0E94F10CA8016D2F7C2FAC
:101A200088E090E0DF91CF911F910F910C94F634F4
:101A3000CF93DF9300D000D0CDB7DEB7EDEBF2E06F
:101A400083E0808311828FEF82838383148280817D
:101A50009181A281B38189839A83AB83BC83BC01CA
:101A6000CD010F900F900F900F90DF91CF910C94BC
:101A7000040D8091970280FF76C08AEB95E09F93DA
:101A80008F930E94F305809197020F900F9080FF33
:101A90006AC08091BD0281701F928F938DE995E09D
:101AA0009F938F930E94F305809197020F900F9060
:101AB0000F900F9080FF57C08091BD0286951F92B6
:101AC0008F9382E895E09F938F930E94F305809116
:101AD00097020F900F900F900F9080FF44C080915D
:101AE000BE021F928F9388E695E09F938F930E948A
:101AF000F305809197020F900F900F900F9080FF49
:101B000032C08091BF021F928F938EE495E09F9325
:101B10008F930E94F305809197020F900F900F9082
:101B20000F9080FF20C08091C0021F928F9384E3AA
:101B300095E09F938F930E94F305809197020F90F9
:101B40000F900F900F9080FF0EC08091C1021F92E6
:101B50008F9388E195E09F938F930E94F3050F90F8
:101B60000F900F900F9008958091BD0280FF02C0EA
:101B70008695089580E00895CF93DF9300D000D03C
:101B8000CDB7DEB78091C102833018F48F5F8093A8
:101B9000C1028091BD029091BE02A091BF02B0919E
:101BA000C00289839A83AB83BC83BC01CD010F90B3
:101BB0000F900F900F90DF91CF910C94040DCF9365
:101BC000DF9300D000D0CDB7DEB78091C10288236B
:101BD00019F081508093C1028091BD029091BE02A4
:101BE000A091BF02B091C00289839A83AB83BC836A
:101BF000BC01CD010F900F900F900F90DF91CF910E
:101C00000C94040D6091230170E08091BD0280FF6F
:101C10000AC08091FA0123E0829FC00111248E53F3
:101C20009D4F0C9496168091F9019091220123E02A
:101C3000829FF0011124EE53FD4F891750F7118256
:101C4000108212828F5F3396F8CF9091BD0290FF81
:101C500014C09091F9012091220133E0939FF0018B
:101C60001124EE53FD4F921710F00C94020E818355
:101C7000608342839F5F3396F6CF0895CF93DF93BF
:101C800000D00F92CDB7DEB79091BD0290FF0AC091
:101C90009E012F5F3F4F0E94E20C4B8169818A8138
:101CA0000E94250E0F900F900F90DF91CF91089515
:101CB000CF93DF93EC01EC81F0E0EB51FA4F4491CC
:101CC000EDEBF2E0628181810E943E0E8C818F5F9C
:101CD0008C83DF91CF910895CF93DF93EC01EDEBEF
:101CE000F2E0438162818C810E943E0E8C818F5F85
:101CF0008C83DF91CF9108950F931F93CF93DF9340
:101D000000D00F92CDB7DEB78C018091F601811122
:101D10000AC09E012F5F3F4F4FEF6FEF0E94E20C12
:101D20008A818093F601F8016481613049F0623064
:101D3000F1F08091F60140E0662331F040E019C0F7
:101D40006091F60140E080E00E94250EF801848158
:101D500090E0019663E070E00E94BF3184830F90B1
:101D60000F900F90DF91CF911F910F9108954091A7
:101D7000F60180E060E0E8CF4F925F926F927F9231
:101D80008F929F92AF92BF92CF92DF92EF92FF928B
:101D90000F931F93CF93DF9300D000D000D00F920A
:101DA000CDB7DEB7182FF62E042FE22E9091BD028C
:101DB00090FF4CC0E92FE695AE2FB0E0A258BE4F81
:101DC0008C91809302029E7F923009F056C09E0152
:101DD0002F5F3F4F812F0E94E20C4B8169818A81E6
:101DE0000E94250E1093BE02F092BF020093C00223
:101DF000EE2009F4A2C08091BD029091BE02A09194
:101E0000BF02B091C0028C839D83AE83BF83BC01AF
:101E1000CD010E94040D8091970280FF17C0809130
:101E2000C0021F928F938091BF021F928F93809167
:101E3000BE021F928F938EE493E09F938F930E9434
:101E4000F3050FB6F894DEBF0FBECDBF27960FB6D1
:101E5000F894DEBF0FBECDBFDF91CF911F910F91E0
:101E6000FF90EF90DF90CF90BF90AF909F908F90BA
:101E70007F906F905F904F900895823019F4009199
:101E8000C002B0CF863019F41091BE02ABCF8930BA
:101E9000D9F3893109F0A6CFE9518E2F8170682ED0
:101EA00081E0762C7826E695F0E0EB51F94FC5906D
:101EB000D490512CDD2493E7892E93E0992E6091E4
:101EC0002101561618F00E94020E8CCFA52CB12CC1
:101ED0005C9CC0015D9C900D112470E00E94AB31B0
:101EE000412E611028C0460E8091970280FF11C0DC
:101EF000DF92CF921F927F921F924F921F925F921A
:101F00009F928F920E94F3050FB6F894DEBF0FBE2A
:101F1000CDBF2091F901A20EB11C9501220F331FF4
:101F20002A0D3B1D2E533D4F402F6F2D842D0E94B7
:101F3000E20C5394C4CF461AD7CF8091970280FF0A
:101F400085CF1F920F931F92FF921F921F9387E2DC
:101F500093E073CF282FEDEBF2E081814381628122
:101F6000885F0C94BC0E81E00C94AA0F282FEDEB37
:101F7000F2E081814381628188500C94BC0E81E043
:101F80000C94B60F282FEDEBF2E0628138E0630F7E
:101F900008F46FEF438181810C94BC0E81E00C94B6
:101FA000C20F282FEDEBF2E0628138E0631B08F4EA
:101FB00060E0438181810C94BC0E81E00C94D10FD0
:101FC000282FEDEBF2E0438138E0430F08F44FEFA8
:101FD000628181810C94BC0E81E00C94E00F282F6B
:101FE000EDEBF2E0438138E0431B08F440E062810E
:101FF00081810C94BC0E81E00C94EF0F20E00C94D6
:10200000BC0EEF92FF921F93CF93DF93EC0110E091
:10201000EE24EA94F12C60912101161770F00E94D1
:10202000020E9A818C8190FF27C08F5F8C83DF9195
:10203000CF911F91FF90EF9008952091F901422FC9
:10204000410F5527551FCA019A01220F331F280F30
:10205000391F2E533D4F70E0C7010E94BF31962FAC
:102060008C814091C0026091BF02199F800D1124A4
:102070000E94E20C1F5FCFCF8150D8CFBF92CF928A
:10208000DF92EF92FF920F931F93CF93DF93FC01A8
:1020900082810FEF80FF01E010E08091210118178D
:1020A000C0F00E94020E8091F801013009F054C086
:1020B000811102C08091210181508093F801DF914C
:1020C000CF911F910F91FF90EF90DF90CF90BF9035
:1020D0000895C091F901C12ED12CCC0DDD2DD11D5B
:1020E000CE01880F991FC80FD91FCE53DD4F19821B
:1020F00018821A8234E0E32EF12CB12C8091F80181
:102100008B0D8B301CF16AE00E949D31892F082EC7
:10211000000C990BC816D90691F48091C0028E9DCF
:10212000A0018F9D500D11245595479555954795C4
:102130009E016091BF028091BE020E94E20CB00E2F
:10214000F1E0EF1AF108D1F61F5FA7CF87FFDFCFCD
:1021500090912101890FDBCF90E0019660912101E0
:1021600070E00E94BF31A9CF0F931F93CF93DF93ED
:102170008091F9019091220123E0829FF0011124C6
:10218000EE53FD4F891740F1C0E0D3E0609121018B
:10219000C61740F10E94020E20911F018091F701A5
:1021A000820F8093F70190912001920F909320016C
:1021B000191654F4082E000C990B4091210141503E
:1021C000550B841795071CF0219520931F01DF9173
:1021D000CF911F910F9108951182108212828F5F0B
:1021E0003396D0CF0C2F10E070E0C8010E94BF31B1
:1021F0002091F901820F482F50E02091F701022E23
:10220000000C330B02171307BCF020912001022EA3
:10221000000C330B201731077CF08D9F90011124A7
:102220002E533D4F4091C0026091BF028091BE028B
:102230000E94E20CCF5FAACFFA01EE0FFF1FE40F5E
:10224000F51FEE53FD4F118210821282F3CF0F93D0
:102250001F93CF93DF938C01FC01848195810196BC
:102260008170992795838483C0E0D5E58091210111
:10227000C81730F0DF91CF911F910F910C94020E8F
:102280002091F901422F4C0F5527551FCA019A0181
:10229000220F331F280F391F2E533D4F8C2F869549
:1022A000F80144815581840F952F911D81704091D3
:1022B000C0026091BF028D9F802D11240E94E20C0C
:1022C000CF5FD4CF0F931F93CF93DF93EC0110E038
:1022D00000E0909121019017110609F06CF40E9422
:1022E000020E8C8190E00196817099278C83DF919A
:1022F000CF911F910F9108952091F901A801420FEC
:10230000511D9A01220F331F240F351F2E533D4FAD
:102310004C816091BF028091BE0296959017110684
:1023200051F04CF0442349F04091C0020E94E20C6D
:102330000F5F1F4FCECF4423B9F340E0F7CF60913A
:10234000BD02669570E04BE050E084E291E00E94AF
:102350001532892B19F481E0809303020E949A2997
:102360009093FC018093FB018091970280FF08C04D
:102370008EE093E09F938F930E94F3050F900F9050
:102380000895109203028091970280FF08C085EFA4
:1023900092E09F938F930E94F3050F900F90089502
:1023A000CF93DF9300D000D0CDB7DEB79091BD02C0
:1023B00090FF61C09170811148C092609093BD02FE
:1023C000662309F449C08091BD029091BE02A0919C
:1023D000BF02B091C00289839A83AB83BC83BC01E6
:1023E000CD010E94040D8091970280FF0FC0809163
:1023F000BD0286951F928F938EE594E09F938F93F5
:102400000E94F3050F900F900F900F906091BD0206
:10241000669570E04BE050E084E291E00E94153256
:10242000892B31F10E94C11181E08093FE0140911E
:10243000C0026091BF028091BE020F900F900F907A
:102440000F90DF91CF910C94FE0F853210F09864BD
:10245000B5CF880F982BB2CF8091970280FFD6CF4F
:102460008091BD0286951F928F9380E494E0C6CF41
:102470000E949F11D9CF0F900F900F900F90DF9176
:10248000CF910895682F8091BD0286958F5F853228
:1024900008F081E00C94D01181E00C944212682F76
:1024A0009091BD0296958FEF890F913009F484E2E7
:1024B0000C94D01181E00C944F1261E00C94D01177
:1024C0008091BD0281608093BD028091970280FF60
:1024D0000DC01F9281E08F9382ED93E09F938F93C5
:1024E0000E94F3050F900F900F900F908091BD0206
:1024F00086950C945D1260E00C94D01180910102DD
:10250000811160C08091970280FF14C081E095E046
:102510009F938F930E94F305809197020F900F90E5
:1025200080FF08C08BEE94E09F938F930E94F30589
:102530000F900F900E940C28811110C0809197027B
:1025400080FF08C083EC94E09F938F930E94F30573
:102550000F900F900E94B2280E94180D0E94000D4B
:102560006093BD027093BE028093BF029093C0023D
:102570006E7FC1F48091970280FF08C08AE794E0E3
:102580009F938F930E94F3050F900F900E94180D58
:102590000E94000D6093BD027093BE028093BF0243
:1025A0009093C0020E94F10C0E94390D1092030218
:1025B0008091BD0280FF03C086950E947B1281E05E
:1025C000809301020895CF93DF9300D000D0CDB760
:1025D000DEB78091BD028E7F8093BD028091BD02E7
:1025E0009091BE02A091BF02B091C00289839A83EC
:1025F000AB83BC83BC01CD010E94040D8091970286
:1026000080FF0FC08091BD0281701F928F938AE975
:1026100093E09F938F930E94F3050F900F900F907C
:102620000F900E94C1119FEFA0E7B2E09150A0402F
:10263000B040E1F700C000000F900F900F900F9096
:10264000DF91CF910C94020E8091970280FF10C011
:102650008091BD02809581701F928F9389E094E0F4
:102660009F938F930E94F3050F900F900F900F9000
:102670008091BD0280FD0C94E3120C9460120F93C4
:102680001F93CF93DF9380910302882309F48DC0B9
:1026900080910202E091BD02E695E81BE093FD0106
:1026A0008230C9F5F0E0EF51FA4FE491CE2FD0E03F
:1026B00008E51EE08091FE01882389F01092FE015A
:1026C0000E949A299E0120953095280F391F30933A
:1026D000FC012093FB01109200021092FF018091F7
:1026E000FB019091FC010E94A6298C179D0708F41C
:1026F0005CC0E091FB01F091FC01CE0FDF1FD09395
:10270000FC01C093FB018BEF91E0F801DF91CF91C9
:102710001F910F910994863049F4F0E0E252FA4F8C
:10272000E491CE2FD0E00CE61EE0C4CF893051F406
:10273000E695F0E0E552FA4FE491CE2FD0E001E0CB
:1027400010E1B8CF8F3051F4E695F0E0E852FA4F3F
:10275000E491CE2FD0E00EE310E1ACCF853149F407
:10276000F0E0EB52FA4FE491CE2FD0E004EB10E111
:10277000A1CFC8EED3E007E211E1883109F49ACF86
:10278000833239F4E3EDF5E0C591D4910CE71EE016
:1027900091CFC4EFD1E002E611E1843209F48ACF8F
:1027A000C0EDD7E001EE1CE085CFDF91CF911F9106
:1027B0000F910895FA0181110994FB01FDCFCF9388
:1027C000DF93C82FD62F0E94B40D8C1740F00E94C3
:1027D000B40D8D1720F4DF91CF910C944C128C2FF7
:1027E000DF91CF910C945D121F93CF93DF93EC0197
:1027F000FB011281111110C00E943E278272FE015E
:10280000E25CFC45E431F10508F05BC0EF5AFA4C9C
:102810000C94F5310E942413812FDF91CF911F91E9
:1028200008954AE552E16CE472E10E94DA13F4CFB4
:102830004CE452E16AE572E1F8CF4FEB5FE063EB05
:102840007FE0F3CF43EB5FE06FEB7FE0EECF4DED4A
:102850005FE06EEC7FE0E9CF4EEC5FE06DED7FE096
:10286000E4CF4BEF5FE06CEE7FE0DFCF4CEE5FE05C
:102870006BEF7FE0DACF4FED5DE06CEB7DE0D5CF25
:102880004CEB5DE06FED7DE0D0CF81E00E945D120A
:10289000C3CF65E082E00E94DF13BECF68E086E030
:1028A000FACF6EE089E0F7CF64E18FE0F4CF67E123
:1028B00085E1F1CF88E1EACF62E289E1ECCF83E202
:1028C000E5CF11E0A9CF8091E00281700895809159
:1028D000E00286958695869508950E940C288111C0
:1028E00002C00E94B2280E943A288093E0028033FE
:1028F00020F0877088628093E0029091E002892F37
:10290000817090FF04C0892F8695869586950C94DA
:10291000DA158091E002982F9695969596958832D3
:1029200040F49F5F990F990F990F8770892B8093BF
:10293000E0028091E00281608093E0020E943E28E4
:102940008091970280FF11C08091E0028695869564
:1029500086951F928F9381E597E09F938F930E94B6
:10296000F3050F900F900F900F908091E0028695E5
:10297000869586950C94DA158091E002982F987FC1
:1029800079F088508093E002887F91E009F490E02C
:102990008091E00290FB80F98093E0020E943E2843
:1029A0008091970280FF11C08091E0028695869504
:1029B00086951F928F9389E397E09F938F930E9450
:1029C000F3050F900F900F900F908091E002869585
:1029D000869586950C94DA158091E00280FD1FC0E3
:1029E00081608093E002813019F489E08093E002F5
:1029F0008091E0020E943E288091970280FF08C0EB
:102A000081E197E09F938F930E94F3050F900F90C1
:102A10008091E0028695869586950C94DA15089546
:102A20008091E00280FF14C08E7F8093E0020E94BC
:102A30003E288091970280FF08C08EEF96E09F931A
:102A40008F930E94F3050F900F9080E00C94DA159D
:102A50000895CF93C091E002C1708091970280FFEA
:102A60000CC01F92CF9383E297E09F938F930E94B5
:102A7000F3050F900F900F900F90CC2319F0CF918A
:102A80000C941015CF910C94EC149091E002892FC6
:102A90008695869586958F5F8F719770863080F5C5
:102AA000880F880F880F892B8093E0028091E002C5
:102AB000887F91E009F490E08091E00290FB80F93A
:102AC0008093E0020E943E288091970280FF11C00F
:102AD0008091E0028695869586951F928F938AEE67
:102AE00096E09F938F930E94F3050F900F900F90A5
:102AF0000F908091E0028695869586950C94DA1564
:102B00009093E002D3CF863008F085E09091E00208
:102B10009770282F220F220F220F922B9093E00202
:102B2000987F21E009F420E09091E00220FB90F9E9
:102B30009093E0020C94DA150E9483158091E002D4
:102B40000C943E289C01FB018281882361F12E3B7D
:102B5000FCE53F07F9F060F42C3BECE53E07A9F0FB
:102B60002D3BFCE53F0799F02B3B3C4549F0089590
:102B70002F3BECE53E0789F0203C3C4589F0089569
:102B800085E00E949C1580E0089580E0FACF0E94C5
:102B9000BC14F9CF0E948914F6CF0E942915F3CFF7
:102BA0000E944515F0CF81E00895259A2D9808954B
:102BB0002D980895CF93DF93CDB7DEB728970FB642
:102BC000F894DEBF0FBECDBF8983863060F58111DA
:102BD0002CC0809180008F77809380000E94D81550
:102BE0004981242F30E0AFEFBFEF0E94FB3125E099
:102BF00030E040E050E00E94D331C9012C3764E15D
:102C00003607C8F469E070E00E94AB317093890028
:102C10006093880028960FB6F894DEBF0FBECDBF34
:102C2000DF91CF91089525E029838091800080680D
:102C300080938000D5CF2A50374D4F4F5F4FB42F30
:102C4000A32F922F8827BC01CD0125EF38E241E068
:102C500050E00E94D33129833A834B835C83CA01BD
:102C6000B9010E9481319B01AC0169817A818B811C
:102C70009C810E948131BB27A92F982F872FBC01EF
:102C80000097A140B10511F66FEF7FEFBFCF089518
:102C90000E94D51582E88093800089E180938100AD
:102CA0008FEF9FEF90938700809386000C946D14B4
:102CB0009C01DB018AB1942F9F7061E070E001C03C
:102CC000660F9A95EAF7862B8AB942954F70E42FE2
:102CD000F0E082A1462F4095482382A1682B5FB780
:102CE000F894CD01880F991F8A0F9B1F820F931FA5
:102CF0008217930741F45FBF87EC90E00197F1F7EB
:102D000000C000000895F90171919F01E8E06BB9DE
:102D1000000000C077FF4BB9770F000000C000C073
:102D200000C04BB900C0EA9591F7E2CF43E90C949B
:102D300058160F931F93CF93DF93C62FD42F022FD4
:102D4000FC0182818823C9F0609306020E949A29BF
:102D5000909305028093040280E28C0F883008F083
:102D600050C0C77081E001C0880FCA95EAF7DF91B3
:102D7000CF911F910F910C94521E109106021613C1
:102D800035C080910402909105020E94A629883CDA
:102D9000910560F5C0E2CD0F1D17B9F080E2810FFB
:102DA000883040F4177081E001C0880F1A95EAF767
:102DB0000E94591EC83048F481E09D2F977001C0D1
:102DC000880F9A95EAF70E94521E802F0E943F1E9C
:102DD000C830B8F4D77081E001C0880FDA95EAF7FF
:102DE000DF91CF911F910F910C94591E80E28C0FAF
:102DF000883038F4C77081E001C0880FCA95EAF7BF
:102E0000EFCFDF91CF911F910F9108959C01CB01DE
:102E1000233F4CE5340769F190F4283DFCE53F077A
:102E200021F1293D4CE5340781F1273D3C45B1F0C6
:102E3000FC018281882361F1109206020895253FEA
:102E4000FCE53F07D1F0263F4CE53407D1F0243FA5
:102E50003C4571F727E245EE64EE03C026E241EE01
:102E600061EE0E94991680E0089527E245EE65EE36
:102E7000F8CF26E241EE60EEF4CF26E241EE62EEBC
:102E8000F0CF27E245EE66EEECCF28E241E0EFCF4F
:102E900081E00895CF93DF93EC01FB0182818823C9
:102EA00009F4C9C0C631FCE5DF07E0F4C2309CE597
:102EB000D907F0F00E941F289093E6028093E50264
:102EC000C631ECE5DE0720F5C230FCE5DF0798F4FB
:102ED0008091E5029091E6020E942D280E94FB203D
:102EE00080E006C09E012A5F3C452930310510F381
:102EF000DF91CF910895FE01E350FC458091E502FA
:102F00008160E331F10588F4EB59FA4C0C94F5310A
:102F1000CA5FDC45C930D105D8F6C858DA4CFE0185
:102F20000C94F5318091E50282608093E502D0CF68
:102F30008091E5028460F9CF8091E5028860F5CF49
:102F40008091E60281608093E602C2CF8091E60222
:102F50008260F9CF8091E5028061E7CF8091E50240
:102F60008062E3CF8091E5028064DFCF0E94FB2086
:102F70008091E5028068D9CF8091E5028C60D5CF41
:102F80008091E6028360DFCF8091E5028E7FCDCF16
:102F90008091E5028D7FC9CF8091E5028B7FC5CFFF
:102FA0008091E502877FC1CF8091E6028E7FCBCFF3
:102FB0008091E6028D7FC7CF8091E5028F7EB5CFED
:102FC0008091E5028F7DB1CF8091E5028F7BADCFFF
:102FD0000E94FB208091E5028F77A7CF8091E502C8
:102FE000837FA3CF8091E6028C7FADCF8091E502F5
:102FF00082FB992790F921E0922790FB82F990FBC0
:1030000083F993CF8091E602982F909591708E7FEF
:10301000892B90FB81F997CF0E94FB209091E502CC
:10302000892F97FB87F9805880CF81E00E94B428D0
:103030004FCF80E0FBCF81E05BCFCF93DF93EB01FD
:1030400086319C4511F50E943E279A81992399F07B
:103050008A7A91E009F490E090930702811109C007
:1030600089E20E9419270E94902780E0DF91CF918A
:10307000089585E3F6CF80910702811104C089E2AB
:103080000E942027F0CF85E3FBCF81E0EFCFCF93E5
:10309000DF93EC0181E0898B8F810E944127888535
:1030A0000E9455270E949027EA81FB81309739F0D2
:1030B0006C897D89CE010696DF91CF910994DF91CD
:1030C000CF910895EF92FF920F931F93CF93DF93C9
:1030D000EC018A85811134C0EB80FC8087E5F81A09
:1030E00026E12E9DC0012F9D900D1124DC01A050E2
:1030F000BF4F1496ED91FC911597309731F054968F
:103100006D917C918A5F9E4F099586E18E9D80012D
:103110008F9D100D112400501F4FF80187810E94D0
:103120004727F80180850E945B270E94902718821C
:1031300019861B861E821D821092090210920802B7
:10314000DF91CF911F910F91FF90EF900895DF9243
:10315000EF92FF920F931F93CF93DF938C01FB01AC
:103160008281882391F080912F018F3F71F0C0E020
:10317000D1E0F12CE12CDD24D39480912F01082E95
:10318000000C990B8E159F0544F4DF91CF911F9190
:103190000F91FF90EF90DF9008958E818823C9F002
:1031A00089859A858017910739F48091080290915A
:1031B00009028017910769F0DF861C870B878989D0
:1031C000811103C0CE010E944718CE0106960E94CD
:1031D0006218FFEFEF1AFF0A6696CFCFEF92FF92C9
:1031E0000F931F93CF93DF938C01FB0197558F3F74
:1031F000910509F0D0F520912F01022E000C330B20
:103200002817390714F480932F01228136E1389F63
:103210007001399FF00C1124E701C050DF4F288B5B
:1032200092818E81992349F11A8709878F5F8E8356
:103230000E949A299E878D870E9477278F830E94FC
:103240003E2788870E9452279885982B9887E88187
:10325000F981309731F06C897D89C7018A5F9E4F73
:103260000995109309020093080281E0DF91CF9144
:103270001F910F91FF90EF9008958823B1F38989F2
:10328000882399F3C7018A5F9E4F0E946218EDCF91
:10329000EF92FF920F931F93CF93DF9380912F01B3
:1032A00010E006E18F3FC1F5DF91CF911F910F91A3
:1032B000FF90EF900895029FF001039FF00D1124FD
:1032C000E050FF4FE288F388E114F10419F488EC30
:1032D000E82EF12C029FE001039FD00D1124C05075
:1032E000DF4F8E818823B9F08D859E850E94A629A7
:1032F000E816F90680F4109F700111248989811164
:1033000005C0C70180509F4F0E944718C7018A5FC0
:103310009E4F0E9462181F5F212F30E080912F0185
:10332000082E000C990B821793072CF6BDCF0F9334
:103330001F93CF93DF93CDB7DEB728970FB6F894DE
:10334000DEBF0FBECDBF809131018F9380913001E0
:103350008F9383EA91E09F938F931F9288E08F93DE
:103360008E010F5F1F4F1F930F930E942232C801DF
:103370000E949B070FB6F894DEBF0FBECDBF289604
:103380000FB6F894DEBF0FBECDBFDF91CF911F9176
:103390000F910895CF93DF93D82FC92F0E949A29B8
:1033A00090930D0280930C02D0930A02C0930B02FB
:1033B000DF91CF91089580910A0290910B02892BA1
:1033C000E1F080910C0290910D020E94A6292091BB
:1033D0003001309131012817390780F480910A02B9
:1033E00090910B0292600E94870610920D0210923B
:1033F0000C0210920B0210920A02089580910A02A8
:103400000E943F1EF2CF109232010C94DB19809182
:103410003201882321F0109232010C94DB1981E0F3
:103420008093320108951F93CF93DF93EC01FB014A
:103430001281112309F464C089319C4509F456C0F6
:10344000CA318CE5D807B0F5C731ECE5DE0709F4E1
:103450003FC080913001909131010597C831FCE562
:10346000DF07D9F1C933D10508F5CD32D10530F4E4
:10347000C832D105A8F4C430D105A8F00E94DB19E8
:1034800080913201882369F10E943E27811129C071
:10349000CE010E94CA1982E00E94DB2710E021C001
:1034A000CB32D10559F30E94DB191BC0C436D105BC
:1034B00029F3F9CFCB318CE5D807D9F0CC31ECE545
:1034C000DE07D9F0CA31DC4571F70E94071A09C03E
:1034D0008091300190913101059690933101809354
:1034E0003001812FDF91CF911F9108950E9497198C
:1034F000F8CF81E080933201F4CF0E94031AF1CF1C
:103500000E94DB1911E0EDCF8EE1489B02C0815093
:10351000E1F7489BFECF0895589880E28A95F1F72D
:10352000589A0895FC013BE03A95F1F798E020E0C5
:1035300080E031E040E14A95F1F7880F489B02C0F6
:103540008160232742E04A95F1F7000040E14A9567
:10355000F1F7915079F790E19A95F1F799B132E04E
:103560003A95F1F7000040E14A95F1F79170922702
:103570002081920F90830895EF92FF920F931F93F3
:10358000CF93DF930F92CDB7DEB719828C017C0108
:10359000E60EF11C0E151F0561F481E09981911171
:1035A00080E00F90DF91CF911F910F91FF90EF90EE
:1035B00008950E94841ACE0101960E94921AF80181
:1035C00081938F01E7CF90930F0280930E02509A60
:1035D000589A089590930F0280930E025098589A2B
:1035E000E89AE9E6F0E080818C7F8083089561505D
:1035F000770B91E001C0990F6A95EAF720E031E07E
:10360000911108C0222391F0589A80E28A95F1F72F
:1036100058980895492F482339F0589A232740E2B3
:103620004A95F1F79695ECCF5898F9CF5898EDCF89
:10363000FF920F931F93CF93DF93EC018C01060F42
:10364000111DC017D10731F4DF91CF911F910F9158
:10365000FF900895F9900E948C1A68E08F2D0E94C7
:10366000F71AEFCF1F920F920FB60F9211242F93DC
:103670003F934F935F936F937F938F939F93AF93FA
:10368000BF93CF93DF93EF93FF935898509AC091D5
:103690000E02D0910F026D81662321F08E819F81F1
:1036A0000E94181B0E948C1A80E18A95F1F75898A5
:1036B0005098589A80E18A95F1F76A81662309F15A
:1036C0008B819C810E94BC1AE881F981882311F0CA
:1036D00088E001C082E080830E94841AFF91EF910C
:1036E000DF91CF91BF91AF919F918F917F916F911A
:1036F0005F914F913F912F910F900FBE0F901F90B0
:103700001895E881F981E4CFCF93DF93C0910E0241
:10371000D0910F02F894509A589885E08A95F1F765
:1037200000005098589A80E28A95F1F7489B0CC0A7
:10373000509A589AE881F98181E08083789481E0F9
:1037400090E0DF91CF9108956D81662381F08E81A5
:103750009F810E94BC1A81110AC0509A589AE88130
:10376000F98182E08083789482E090E0EACF0E9441
:10377000841A80E28A95F1F75898509A80E18A95E8
:10378000F1F76A81662321F08B819C810E94181BCE
:103790000E948C1AE881F9811082789490E080E090
:1037A000D0CF90931502809314020895E0911402F3
:1037B000F0911502309721F00190F081E02D0994ED
:1037C00080E00895EF92FF920F931F93CF93DF93C2
:1037D0008C01E0911402F09115023097C1F1028042
:1037E000F381E02D09958091970282FF30C080FF20
:1037F00004C081E798E00E945A05D0E0C0E08BE663
:10380000E82E88E0F82E8091970280FF0EC0F80124
:10381000EC0FFD1F80811F928F93FF92EF920E9409
:10382000F3050F900F900F900F902196C830D1059F
:1038300051F78091970280FF0AC089E698E0DF91F6
:10384000CF911F910F91FF90EF900C945A05DF914B
:10385000CF911F910F91FF90EF9008952091120248
:10386000309113022817390771F090931302809357
:103870001202E0911402F0911502309721F00680B7
:10388000F781E02D099408952091100230911102E2
:103890002817390771F09093110280931002E0917C
:1038A0001402F0911502309721F00084F185E02D8B
:1038B0000994089585B7806885BF85B7806885BFFE
:1038C0000895089508950C94611C08950C94651C46
:1038D0000E945A1C0E94621C0C94631C0E94912935
:1038E0000E94960A0E94EA290E946D140E947E128C
:1038F0000C94661CCF93C82F8091970282FF1EC044
:1039000080FF1CC08AE898E00E945A0580919702C7
:1039100080FF14C01F92CF9385E898E09F938F9308
:103920000E94F305809197020F900F900F900F90D7
:1039300080FF04C083E898E00E945A058C2FCF9145
:103940000C94B307AF92BF92CF92DF92EF92FF92A7
:103950000F931F93CF93DF9300D000D00F92CDB77A
:10396000DEB70E94190B0E94DF0B882309F460C0A8
:1039700087E1A82E82E0B82E10E000E0C02E802F54
:103980000E94450AF82EF501D1905F01D81609F47E
:1039900049C08091970281FD0E944B0A80E0EE248D
:1039A000E394DF249D2D9E21C1F18983CA82FE20EC
:1039B00081E009F480E08B830E949A298160782F4E
:1039C0009D838C8349815A816B818D810E94391D31
:1039D000F801E95EFD4F8081E826E0820E943F13F6
:1039E0000E9447160E94D61B90911602891789F1F2
:1039F0000E94D61B809316020F900F900F900F908D
:103A00000F90DF91CF911F910F91FF90EF90DF907A
:103A1000CF90BF90AF900C947A1C8F5FEE0C8630E5
:103A200009F0C0CF0F5F1F4F0A30110509F0A6CF74
:103A30008FEF89838A831B820E949A298160782F65
:103A40009D838C8349815A816B818D810E94391DB0
:103A5000C5CF0F900F900F900F900F90DF91CF91E7
:103A60001F910F91FF90EF90DF90CF90BF90AF909C
:103A70000895CF93DF93CDB7DEB72B970FB6F894A9
:103A8000DEBF0FBECDBF4F83588769877A878B878C
:103A90001E8285E0FE013796DE01119601900D929F
:103AA0008A95E1F749815A816B817C818D819E8164
:103AB0002B960FB6F894DEBF0FBECDBFDF91CF912E
:103AC0000C945E23FC01808191810C94E326CF93BA
:103AD000C82F882309F482C08238C1F40E94D61B03
:103AE00081FD7CC089E30E9419270E9490272FEF57
:103AF00031EE84E0215030408040E1F700C000000A
:103B000089E30E942027CF910C9490278338A1F459
:103B10000E94D61B80FD62C083E50E9419270E9487
:103B200090279FEF21EE34E0915020403040E1F7A4
:103B300000C0000083E5E5CF8438A1F40E94D61BC5
:103B400082FD4CC087E40E9419270E9490278FEFC6
:103B500091EE24E0815090402040E1F700C0000049
:103B600087E4CFCF8CEF8C0F813A90F46C2F80914B
:103B70003301909134010E94CB28882329F08C2FA7
:103B80000E9420270E9490278C2F0E941927BBCFCC
:103B900080E28C0F883048F4C77081E001C0880F44
:103BA000CA95EAF70E944127AECF8BE58C0F833090
:103BB00038F42C2F2452330BC901CF910C942E1CB6
:103BC000C85AC73158F4EC2FF0E0EE0FFF1FE8554C
:103BD000FE4F80819181CF910C94441CCF91089528
:103BE000882309F44BC0823871F40E94D61B81FFF0
:103BF00045C089E30E9419270E94902789E30E940B
:103C000020270C949027833859F40E94D61B80FFFC
:103C100035C083E50E9419270E94902783E5EFCFE6
:103C2000843859F40E94D61B82FF28C087E40E9482
:103C300019270E94902787E4E2CF9CEF980F913AD2
:103C4000F0F290E2980F983050F4877091E001C044
:103C5000990F8A95EAF7892F0E944727D2CF9BE5D3
:103C6000980F933020F490E080E00C942E1C885A3A
:103C7000873120F490E080E00C94441C0895CF93A9
:103C8000C82F0E94671DC93349F42FEF87EE93E0D8
:103C9000215080409040E1F700C000008C2FCF9170
:103CA0000C94F01D882321F00E9441270C9490274A
:103CB0000895882321F00E9447270C9490270895A7
:103CC000AF92BF92CF92DF92EF92FF920F931F932A
:103CD000CF93DF9300D000D00F92CDB7DEB76C0149
:103CE0006D837983FC01058102950F70128111119A
:103CF0000E9463270E943727E82E882371F0112342
:103D0000B1F08D81805E883090F082E00E94DB27E8
:103D10000E94372791E0E82EE926A980A2949FE02F
:103D2000A922B12CF501EF57FA4C0C94F531E12C96
:103D3000F4CF09810F70F981F07F11F00295007FB7
:103D40001123B1F0002361F08D81805E883018F07E
:103D50002D81211109C0802F0E9441270E949027A8
:103D60008D810E94671D15C0802F0E945527F6CFB8
:103D70008D810E94F01D002361F08D81805E88306E
:103D800018F04D81411133C0802F0E9447270E94B7
:103D9000902758E0A51AB10864E0A616B10420F4F3
:103DA0000E94D61B0E94B307EE2009F4C1C10E94F5
:103DB000332780FDBDC1F60112820E942D270E948B
:103DC0003825C6010E94BF200E942D270F900F901A
:103DD0000F900F900F90DF91CF911F910F91FF9057
:103DE000EF90DF90CF90BF90AF900C946925802F1B
:103DF0000E945B27CCCF59815F70F52E6981607F6F
:103E0000603219F0F29480EFF8227D81772369F017
:103E1000713049F1112391F1002351F1F6018581AF
:103E200080FF9ECF8F70858323C0112381F0011105
:103E300006C00E9477278F290E94521EAACF013008
:103E4000C1F70E9477278F290E947D27A2CF0111F9
:103E500006C00E9486278F2D0E94591E9ACF0130DE
:103E600009F497CFF6CF112329F0063008F091CF4F
:103E70008F2DE2CF053008F08CCFEDCF002359F322
:103E8000FD81F93349F42FEF47EE53E021504040D4
:103E90005040E1F700C000008D810E94F01D79CFF5
:103EA000898186958695837069F0813009F071CF9C
:103EB0008D8199819370111102C090E080E00E9481
:103EC000441C67CF8D8199819370111102C090E0DD
:103ED00080E00E942E1C5DCF8981837009F050C064
:103EE000111157CF4D81429546954770440F440FAD
:103EF0008D818F7090E0B0E0A0E0042E04C0880FA8
:103F0000991FAA1FBB1F0A94D2F76D8100E010E031
:103F1000980164FF0FC00FE010E020E030E004C023
:103F2000000F111F221F331F4A95D2F700951095DD
:103F30002095309579817695769573707D83B9015A
:103F4000A801482B592B6A2B7B2B49835A836B83FF
:103F50007C835D8169817A818B819C81523051F0B3
:103F6000533059F0513019F00E94AE2412CF0E9404
:103F700086240FCF0E94D6240CCF0E94842409CF20
:103F80008695112311F089818170882309F401CF6E
:103F90004D81429546954770440F440F8D818F7037
:103FA00090E0B0E0A0E0042E04C0880F991FAA1F83
:103FB000BB1F0A94D2F76D8100E010E0980164FF06
:103FC0000FC00FE010E020E030E004C0000F111F30
:103FD000221F331F4A95D2F70095109520953095F2
:103FE00079817695769573707D83B901A801482B08
:103FF000592B6A2B7B2B49835A836B837C835D818E
:1040000069817A818B819C81523051F0533059F013
:10401000513019F00E94F725BCCE0E94CF25B9CEB1
:104020000E941F26B6CE0E940225B3CE69816F7012
:104030006983112329F0862F0E9438258D81FCCEBB
:104040008D810E94591E89810E946925A2CE7D81A1
:10405000723FA1F160F4703FE1F0713F41F1112333
:1040600009F445C001117CCE89818F7124C08D81F6
:10407000833F49F1843F99F7112379F199819F7129
:104080009983892F0E94382563E089810E94C62781
:1040900080CE112341F0053008F07BCE89818F71ED
:1040A0000E949E2576CE063008F073CEF7CF898128
:1040B0008F71112349F20E9438256BCE89818F714F
:1040C0001123C9F3C1CF112329F089818F710E9477
:1040D00013255FCE0E940E255CCE81E00E94DB2777
:1040E000023008F456CE82E00E94DB2752CE002335
:1040F00061F0ED81E93309F0CFCEFFEF27EE43E029
:10410000F15020404040E1F7C5CE89818F719CCFAE
:1041100049814F706D81C6010E9439080E94F823C1
:1041200038CE49814F706D81C6010E943C0831CE66
:104130000F900F900F900F900F90DF91CF911F91E4
:104140000F91FF90EF90DF90CF90BF90AF900895C8
:104150000F931F93CF93DF93EC01688179818A815C
:104160000E94EF268C010E9447260E948324B801FA
:10417000CE01DF91CF911F910F910C94601ECF93D0
:10418000DF93EC018B819C81892B29F088819981B7
:1041900089238F3F19F4DF91CF910895CE010E94BA
:1041A000CB078823C1F3CE010E94A820CE01DF9166
:1041B000CF910C94D806882321F00E9455270C94A7
:1041C00090270895882321F00E945B270C94902764
:1041D00008950E9463270E9474270E94902790E010
:1041E00080E00E942E1C90E080E00C94441C0E9411
:1041F00027270C94E9200E944F270C94F720282FA2
:10420000892F82958F70903C80F48A30B0F484308E
:1042100020F4823090F480E008958630E1F781E068
:10422000283E88F0213FB9F70EC08C3011F08F3056
:1042300091F793FB882780F9089581E0203F39F0BA
:1042400018F4283E40F70895243F29F7FCCF08953D
:104250000E94E3260C94FF20CF93DF9300D000D080
:104260000F92CDB7DEB70F900F900F900F900F9079
:10427000DF91CF910895CF93DF9300D000D000D08D
:10428000CDB7DEB726960FB6F894DEBF0FBECDBF12
:10429000DF91CF9108951F93CF93DF93E091220296
:1042A00016E0809123028E1304C0DF91CF911F91FD
:1042B0000895CE2FD0E01E9FF0011124EC5DFD4F3C
:1042C0004081518162817381848195810E943B216B
:1042D000FE013196E770E5CF4091540250915502AE
:1042E0006091560270915702809158029091590244
:1042F0000C943B211F93CF93DF9380915902807FD1
:10430000A9F480915602882389F080912202C091FD
:1043100023026091540270915502A0915702B0910E
:104320005802D62FD72316E0C81304C0DF91CF91CF
:104330001F91089590E0109711F0DF3F19F4019656
:104340008770F2CF189F9001199F300D1124F90149
:10435000EC5DFD4F41814713F2CF40814613EFCF13
:1043600042814111ECCF438154814A1B5B0B483C95
:10437000510528F7809159028F708061809359020E
:10438000F901E75DFD4F80818F708061808384E556
:1043900092E00E94BF20DF91CF911F910C944B219E
:1043A000AF92BF92CF92DF92EF92FF920F931F9343
:1043B000CF93DF93CDB7DEB72B970FB6F894DEBF60
:1043C0000FBECDBF8C0185E0F801DE01179601908C
:1043D0000D928A95E1F7F80140815181E28084E5F0
:1043E000C82E82E0D82E6091570270915802611554
:1043F000710509F444C19091540220915502822F15
:1044000089238F3F09F43BC1A380B480F09056020A
:10441000F501E61BF70BFF2009F4E0C0809159027B
:10442000382F307FE83CF10508F0B2C0311179C077
:10443000FE2C251323C0941321C0E1101FC08F70E0
:104440008061809359020E946C21C6010E94BF20A6
:1044500080915902F80185838F2D2B960FB6F89421
:10446000DEBF0FBECDBFDF91CF911F910F91FF90A7
:10447000EF90DF90CF90BF90AF900895AB2829F0D8
:10448000842F85238F3F09F016C180E0F82FF1704B
:10449000DF2EE09122022091230236E080FD1CC035
:1044A000EE20D1F280915902816080935902F12C63
:1044B000D3CF8E2F90E03E9FF0011124EC5DFD4F95
:1044C0006181651306C06081641303C06281E612D6
:1044D000E7CFFC013196E770E213EBCF4F835887AB
:1044E0008F8198850E94E326292F22952F70903284
:1044F00060F0225F2F70223078F49F7051F0F80145
:104500009581907F31F4D12C0AC09F7011F08823DF
:10451000D1F3805E8830B8F3C8010E94BF20FD2C23
:104520009BCF251306C0941304C0F801EE2009F4B4
:1045300070C04F8358878F8198850E9428218823D7
:1045400019F1EE2009F180915902803270F020912A
:104550005402309155023A8329831B82BD82AC827A
:104560008E83CE0101960E94BF2086E0F801A4E56B
:10457000B2E001900D928A95E1F70E947A210E94A3
:104580006C21FF24F39468CFC8010E94BF20F9CFAB
:10459000311113C07A2DBB86AA866E2D8B850E94A1
:1045A0002C2184E592E00E94BF2086E0F601119262
:1045B0008A95E9F70E946C217ACF2513BACF94131C
:1045C000B8CFE110B6CFF8018583C8010E94BF20A3
:1045D00086E0F60111928A95E9F73ECFE83CF105B5
:1045E00008F040C0FE2CEE2079F225132AC0941367
:1045F00028C08091590280FD1BC0982F907FC1F088
:10460000F8018583903F31F0982F907F905F8F70F5
:10461000892B8583C8010E94BF2086E0F801A4E5AC
:10462000B2E001900D928A95E1F70E946C2114CFBF
:1046300086E0F801A4E5B2E001900D928A95E1F7D9
:104640000BCF4F8358878F8198850E942821811135
:104650008CCF80915902816080935902C8010E94D9
:10466000BF20FACE7A2DBB86AA866E2D8B850E943E
:104670002C2186E0F60111928A95E9F7D6CFEE203B
:1046800009F482CF4F8358878F8198850E94282113
:10469000F82E882309F478CF86E0F801A4E5B2E08B
:1046A00001900D928A95E1F784E592E00E94621DE7
:1046B0000E947A21BACF81E08E25E8CE1F93CF9356
:1046C000DF93CDB7DEB72C970FB6F894DEBF0FBEE1
:1046D000CDBF4F83588769877A878B879C87CE01A8
:1046E00007960E94D021882369F08A859B85892BB3
:1046F00039F04F815885842F85238F3F09F071C091
:1047000016E05FC086E0FE013796DE01119601904B
:104710000D928A95E1F78A859B85892B89F3888597
:104720009F8189238F3F61F32091230230E0C901EB
:10473000019687709927409122024817190671F453
:104740000E94FB20109223021092220286E0E4E5F0
:10475000F2E0DF011D928A95E9F7D2CF96E0929FB1
:10476000D001939FB00D1124AC5DBD4FFE01319679
:1047700001900D929A95E1F7809323020E944B21BC
:10478000BFCF819FC00111248C5D9D4F0E94D0211D
:104790008823E9F0E09122021E9FF0011124EC5DD4
:1047A000FD4F4081518162817381848195810E9496
:1047B0003B218091220290E0019687709927809397
:1047C000220280912202909123028913DACF2C9643
:1047D0000FB6F894DEBF0FBECDBFDF91CF911F9112
:1047E000089569857A858B859C850E943B2188CFB9
:1047F000EF92FF920F931F93CF93DF938C01892B3E
:1048000089F0F12CEE24E394E8012196F8018491DB
:10481000843709F457C0A0F4823009F43EC048F44C
:104820008130D1F0DF91CF911F910F91FF90EF90E8
:1048300008959CEF980F9037A8F70E94671D0AC053
:10484000853709F44CC09CE7980F903758F78F775D
:104850000E94F01D8E0116C00E5F1F4FFE01849155
:1048600090E2980F983060F48770FE2D01C0FF0F22
:104870008A95EAF78F2F0E9466270E94902702C030
:104880000E94671D8F2D815008F4BECFEFE9FFE035
:104890003197F1F700C00000F6CF0E5F1F4FFE0109
:1048A000849190E2980F983050F48770FE2D01C0EB
:1048B000FF0F8A95EAF78F2F0E946C27DECF0E94A8
:1048C000F01DE0CF0E5F1F4FFE01C491C150D0F22A
:1048D0008FE99FE00197F1F700C00000F7CF0E5F6E
:1048E0001F4FFE01F490CECF08950C9474240E94C3
:1048F0007524609386027093870280938802909358
:1049000089020C94E92008950C947724CF93DF93C7
:1049100000D000D0CDB7DEB769837A838B839C83C8
:104920008091860290918702A0918802B0918902BD
:1049300029813A814B815C81282B392B4A2B5B2BB7
:1049400029833A834B835C83CA01B9010F900F908E
:104950000F900F90DF91CF910C947724CF93DF933A
:1049600000D000D0CDB7DEB769837A838B839C8378
:104970008091860290918702A0918802B09189026D
:1049800029813A814B815C81282339234A235B2387
:1049900029833A834B835C83CA01B9010F900F903E
:1049A0000F900F90DF91CF910C947724CF93DF93EA
:1049B00000D000D0CDB7DEB769837A838B839C8328
:1049C0008091860290918702A0918802B09189021D
:1049D00029813A814B815C81282739274A275B2727
:1049E00029833A834B835C83CA01B9010F900F90EE
:1049F0000F900F90DF91CF910C9477240C94742436
:104A00000C94FE240E94002560938202709383021E
:104A100080938402909385020C94E92060E070E01A
:104A2000CB010C9402250F931F93CF93DF9300D0FB
:104A300000D0CDB7DEB741E050E060E070E08A0121
:104A40009B0104C0000F111F221F331F8A95D2F74C
:104A500009831A832B833C83C901B8010F900F90FF
:104A60000F900F90DF91CF911F910F910C94022521
:104A70000F931F93CF93DF9300D000D0CDB7DEB755
:104A800041E050E060E070E004C0440F551F661F35
:104A9000771F8A95D2F78091820290918302A0912C
:104AA0008402B09185028A019B01082B192B2A2BC5
:104AB0003B2B09831A832B833C83C901B8010F90D8
:104AC0000F900F900F90DF91CF911F910F910C9449
:104AD00002250F931F93CF93DF9300D000D0CDB763
:104AE000DEB741E050E060E070E004C0440F551FC5
:104AF000661F771F8A95D2F74095509560957095FF
:104B00008091820290918302A0918402B0918502EB
:104B10008A019B01082319232A233B2309831A8333
:104B20002B833C83C901B8010F900F900F900F9019
:104B3000DF91CF911F910F910C9402250F931F933A
:104B4000CF93DF9300D000D0CDB7DEB741E050E087
:104B500060E070E004C0440F551F661F771F8A9500
:104B6000D2F78091820290918302A0918402B09149
:104B700085028A019B01082719272A273B270983D9
:104B80001A832B833C83C901B8010F900F900F90BB
:104B90000F90DF91CF911F910F910C940225CF932D
:104BA000DF9300D000D0CDB7DEB769837A838B83E3
:104BB0009C838091820290918302A0918402B091A3
:104BC000850229813A814B815C81282B392B4A2B24
:104BD0005B2B29833A834B835C83CA01B9010F9015
:104BE0000F900F900F90DF91CF910C940225CF93EF
:104BF000DF9300D000D0CDB7DEB769837A838B8393
:104C00009C838091820290918302A0918402B09152
:104C1000850229813A814B815C81282339234A23EB
:104C20005B2329833A834B835C83CA01B9010F90CC
:104C30000F900F900F90DF91CF910C940225CF939E
:104C4000DF9300D000D0CDB7DEB769837A838B8342
:104C50009C838091820290918302A0918402B09102
:104C6000850229813A814B815C81282739274A278F
:104C70005B2729833A834B835C83CA01B9010F9078
:104C80000F900F900F90DF91CF910C940225089513
:104C9000292F220FE22FE90FEE0FE80F8E2F8770DA
:104CA00041E001C0440F8A95EAF7E695E695E6955E
:104CB00085E0E89FF0011124E65AFD4F30E020E046
:104CC00070E05191DF011197CB01022E02C0969541
:104CD00087950A94E2F7817081958527842385273B
:104CE0008C932F5F3F4F2530310559F70895292FB9
:104CF000220FE22FE90FEE0FE80F9E2F9770E69537
:104D0000E695E69585E0E89FF0011124E65AFD4F0F
:104D100050E040E080E0219130E0092E02C036955D
:104D200027950A94E2F721703327042E01C0220F41
:104D30000A94EAF7822B4F5F5F4F4530510559F7D0
:104D40000895BF92CF92DF92EF92FF920F931F933D
:104D5000CF93DF938C01C0908202D0908302E090C9
:104D60008402F09085028091860290918702A09142
:104D70008802B0918902C82AD92AEA2AFB2ACFE1FF
:104D8000D0E0BC2ED701C6010C2E04C0B695A79565
:104D9000979587950A94D2F780FD0EC0219788F7E2
:104DA000B12C8B2DDF91CF911F910F91FF90EF9040
:104DB000DF90CF90BF900895B8018C2F0E945908C2
:104DC000019761F3EECFCF93DF93D82FC92F0E94C5
:104DD000A1266D2F7C2FDF91CF910C9459081F9342
:104DE000CF93DF93162FD72F90912102992339F07B
:104DF000862F972FDF91CF911F910C94E326882364
:104E000091F0862F972F0E94A126C82F682F812FFF
:104E10009D2F0E944826612F7D2F8C2FDF91CF91EF
:104E20001F910C945908862F972F0E947726C82F20
:104E3000F2CF682F80913301909134010C940529B1
:104E4000682F80913301909134010C94072980914F
:104E50003301909134010C94092980918A0285953F
:104E600085958595089580918A028770089590911F
:104E70008A02977081E009F480E00895809196029B
:104E8000089590919602982B909396020895982FEA
:104E900090958091960289238093960208951092AE
:104EA0009602089580919502089590919502982B0D
:104EB000909395020895982F90958091950289235B
:104EC000809395020895109295020895909194020E
:104ED000982B909394020895982F90958091940226
:104EE00089238093940208951092940208958091EA
:104EF0008B02089508950C947A2790918B0298174D
:104F000021F080938B020C947B27089580918B0273
:104F1000882329F010928B0280E00C947B2708955F
:104F2000E0913301F0913401809196028083E09109
:104F30003301F0913401808190919502892B808317
:104F4000E0913301F0913401808190919402892B9A
:104F5000808390918B02992381F0E0913301F0914D
:104F600034018081892B80838091330190913401B9
:104F70000E94B92881110E94862780913301909167
:104F800034010C94E21B08950C94C32798E0899F88
:104F900090011124622B60938A020E94382580912F
:104FA0008A028595859585950C94C42710928A026E
:104FB00080E00C94C42790918A0280958923809385
:104FC0008A02282F277071F4282F082E000C330B2B
:104FD0009217130639F08595859585950E94692568
:104FE0000C94D62708959093E7018093E6010895E5
:104FF000829594E0899F900111242C7C869586955A
:105000008373282B30E0C901880F991F8A7A359560
:1050100027952575822B089590E080E00E94DE346C
:105020009C0181E02C3E3E4F09F080E0089582E033
:1050300090E00C94D03483E090E00C94D034CF9383
:1050400084E090E00E94D034C82F81E290E00E947A
:10505000D034982F8C2FCF910895CF93682FC92FDC
:1050600084E090E00E94E4346C2F81E290E0CF91E4
:105070000C94E43486E090E00C94D034682F86E001
:1050800090E00C94E434AB01BC018FE090E00C9410
:10509000F634AB01BC0183E190E00C94F63460E09F
:1050A00070E0CB010C94492860E070E0CB010E94D5
:1050B00043280C944F286CEE7EEF90E080E00E9435
:1050C000023560E082E090E00E94E43460E083E03A
:1050D00090E00E94E43410928602109287021092AF
:1050E00088021092890260E084E090E00E94E4343B
:1050F00060E081E290E00E94E43460E085E090E0CE
:105100000E94E43460E086E090E00E94E4346FEFB7
:1051100087E090E00E94E43440E050E0BA0188E08B
:1051200090E00E94F63460E08DE090E00E94E4346C
:1051300040E050E0BA0188E190E00E94F63460E07F
:1051400087E190E00E94E43440E050E0BA018CE155
:1051500090E00E94F63460E080E290E00E94E43447
:105160000C9454280C945B28682F8EE090E00C94EB
:10517000E434AC019C012E5F3F4F485F5F4F80E0FD
:105180002417350709F40895F90191919F01992396
:10519000B9F38F5FF5CF9C01662351F0FC01329685
:1051A000285F3F4F8191861729F0E217F307D1F767
:1051B00080E0089581E008959C01FC0132968FEF14
:1051C00090E04191461751F08F3F19F4411101C011
:1051D000892F9F5F9630A9F78F3F09F40895280F14
:1051E000311D87FD3A95F901628308959C01FC0108
:1051F0003296285F3F4F8191861303C0DF011197DC
:105200001C92E217F307B9F708950C94DC280C946C
:10521000F628FC01329686E0DF011D928A95E9F7B7
:105220000895089508950C9412290E9413298091DD
:10523000EB02843061F11092980288E190E020E462
:105240000FB6F894A895809360000FBE209360007D
:1052500080E00E94DA1580E00E94B3070E941329C3
:1052600083B7817F846083BF83B7816083BF789475
:10527000889583B78E7F83BF0FB6F894A8958091E9
:105280006000886180936000109260000FBE0895F6
:105290000895CF930E9411290E94190B0E9448295A
:1052A000C0E08C2F0E94450A811105C0CF5FCA3033
:1052B000C1F7CF91089581E0FCCF08950C945D294A
:1052C0000E94FB200E946D140E94D61B0E94B3070F
:1052D0000C945E291F921FB61F9211248F939F93E7
:1052E000AF93BF9380919802811113C08091E10226
:1052F0009091E202A091E302B091E4024196A11DD7
:10530000B11D8093E1029093E202A093E302B09377
:10531000E402BF91AF919F918F911F901FBE1F908C
:10532000189582E084BD93E095BD9AEF97BD809378
:105330006E0008952FB7F8948091E1029091E202F7
:10534000A091E302B091E4022FBF08959C014FB7F2
:10535000F8948091E1029091E202A091E302B09171
:10536000E4024FBF821B930B089578941F921FB6DF
:105370001F9211248F939F93AF93BF938091E1026B
:105380009091E202A091E302B091E4020196A11D86
:10539000B11D8093E1029093E202A093E302B093E7
:1053A000E402BF91AF919F918F911F901FBE1F90FC
:1053B000189587E797E7909301088093000888E1A4
:1053C0009AE00FB6F894A895809360000FBE909372
:1053D0006000FFCFCF93DF9300D000D0CDB7DEB712
:1053E0000E940C28811102C00E94B2280E94172836
:1053F000809397020E941F289093E6028093E50213
:105400000E941B28282F30E050E040E029833A8397
:105410004B835C83CA01B9010F900F900F900F90DE
:10542000DF91CF910C9484248091A4020895089573
:105430009FB7F89410929B029FBF9091EB0294301B
:1054400009F048C02091E9002F703091EC00932FB3
:10545000917030FD90E8922B23E02093E900209199
:10546000EB0020FF34C02091EE0027FF30C02091D8
:105470009902222321F02091E80025FF28C01092F4
:10548000990226E03091E80035FF14C08093F100C6
:105490008091E80085FD27C08091E80080FFFCCF67
:1054A0008091E8008E778093E8009F709093E900E8
:1054B00080E008953091EB02343049F43091EB00F4
:1054C00035FD05C0215041F481E0809399029F7021
:1054D0009093E9008FEF0895EFE9FFE03197F1F73E
:1054E00000C00000CFCF8FB7F89421E020939B023B
:1054F0008FBFDBCFCF93DF9300D00F92CDB7DEB756
:105500009091EB02943019F589836A837B8382E062
:105510008093E9008FEF9091E800815095FD06C0DF
:1055200095ED9A95F1F700008111F5CF8091E80093
:1055300085FF0DC050E040E063E070E0CE010196D1
:105540000E94FA2C8091E8008E778093E8000F90FB
:105550000F900F90DF91CF910895CF93DF93D82FC5
:10556000C92F0E94DD2C823011F0843039F46D2F68
:105570007C2F84E0DF91CF910C947A2ADF91CF9138
:105580000895BC0183E00C947A2ACF93DF93D82F3F
:10559000C92F0E94DD2C823011F0843049F581E062
:1055A0008093E9008FEF9091E800815095FD06C04F
:1055B00095ED9A95F1F700008111F5CF8091E80003
:1055C00085FF16C050E040E068E070E08D2F9C2F12
:1055D0000E94FA2C8091E8008E778093E80088E0A2
:1055E000ED2FFC2FACE9B2E001900D928A95E1F726
:1055F000DF91CF91089582EC98E00E945A05809146
:10560000EA02811109C00E94822E0E94DF2E809141
:10561000E20084608093E20008958EEB98E00E949F
:105620005A051092EA0208958AEB98E00C945A0504
:1056300086EB98E00C945A0582EB98E00E945A059C
:105640000C94602920919A022F5F822F62E30E94BE
:105650009131992319F020939A02089510929A0299
:1056600080919B028823F1F08091EB028430C1F499
:105670009091E9009F702091EC00822F817020FDB5
:1056800080E8892B93E09093E9009091EB0090FFE4
:1056900004C09091EE0097FD08C08F708093E900E0
:1056A00010929B0208951092F1009091E80095FDF0
:1056B000FACF9091E80090FFF0CF9091E8009E77AC
:1056C0009093E800EACF42E061EC81E00E94FE2D79
:1056D00042E261EC82E00E94FE2D42E261EC83E056
:1056E0000C94FE2D8091ED02893089F148F48230CE
:1056F00009F49DC0833009F458C0813041F0089509
:105700008A3009F484C08B3009F46AC0089580910E
:10571000EC02813A09F048C08091E800877F8093CD
:10572000E8008091F0029091F102892B61F468E029
:105730008CE992E070E00E94492D8091E8008B771F
:105740008093E800089560E090E080E0F3CF8091DE
:10575000EC02813249F58091F0029091F1020297BA
:1057600018F58091E800877F8093E8008091E80039
:1057700082FF16C09091F3008091F200029729F405
:105780008091F1008B7F813021F48091F100809332
:10579000A4028091E8008B778093E8000C94322E6D
:1057A0008091EB028111E2CF08958091EC02813A61
:1057B000D9F78091F0029091F102892BA9F780919D
:1057C000E800877F8093E8008091E80080FFFCCFAD
:1057D00080913F018093F1008091E8008E77DCCFCB
:1057E0008091EC02813201F78091F0029091F102F8
:1057F000892BD1F68091E800877F8093E8000E9492
:10580000322E8091EE0280933F010C94FB20809118
:10581000EC02813249F68091E800877F8093E800AE
:105820000E94322E8091EF028093A502089580910C
:10583000EC02813A09F0B8CF8091E800877F80932D
:10584000E8008091E80080FFFCCF8091A502C2CFE4
:1058500084B7877F84BF0FB6F894A89580916000C5
:10586000886180936000109260000FBE80E890E035
:105870000FB6F89480936100909361000FBE0E9470
:10588000681C0E94822E0E94DF2E8091E2008460BC
:105890008093E20088E19AE20E94F32778940E94C4
:1058A00066310E946E1C85E391E00E94D11B81EA63
:1058B00098E00E945A058091EB02853019F00E9411
:1058C000A21CF9CF8DE998E00E945A050E94152983
:1058D0008091E902882379F30E944929882359F3AA
:1058E0000E94E42CE8CF0C94752CFC01CB01DA016A
:1058F0002F2F332723303105D1F070F421303105BB
:1059000009F44EC02230310569F48BE590E028E0BF
:1059100039E02D933C9308952132310521F1223253
:10592000310571F190E080E030E020E0F2CFCF016E
:105930009927E230A9F08330910550F4009769F07F
:10594000E4EFF8E0019771F7849190E09F01E1CFD7
:10595000E6ECF8E00397C1F3E5CFE4E0F9E0F4CF3B
:10596000ECECF8E0F1CF63307105E0F6880F991F99
:10597000FC01E152FE4F2081318189E090E0C9CFE6
:105980006330710578F6FB01EE0FFF1FE752FE4F03
:10599000208131818A529E4FFC01808190E0B9CFF5
:1059A00082E190E023E639E0B4CF8091EB028430CD
:1059B00011F482E0089581E008958091A60281119A
:1059C00002C00C94D52C089580E189BD82E189BD87
:1059D00009B400FEFDCF8091D8008F7D8093D80060
:1059E0008091E00082608093E0008091E00081FD82
:1059F000FCCF0895AF92BF92CF92DF92FF920F93A8
:105A00001F93CF93DF936C01EB018A010E94512E0B
:105A1000F82E811123C00115110539F0F80180819C
:105A20009181C81BD90BC80ED91EB12CA12C20976F
:105A3000A9F08091E80085FD22C08091E8008E7772
:105A40008093E80001151105A1F0F8018081918192
:105A5000A80EB91EB182A08285E0F82E8F2DDF91AD
:105A6000CF911F910F91FF90DF90CF90BF90AF909B
:105A700008950E94512E8823D1F2F82EEFCFF6011F
:105A800081916F018093F1002197FFEFAF1ABF0A58
:105A9000CECFFC01CB012091F2023091F302261708
:105AA000370790F0009729F42091E8002E77209393
:105AB000E80040E0009751F4411108C08091E800EF
:105AC00082FF31C080E00895C901F3CF2091EB023D
:105AD0002223A9F12530A9F12091E80023FD2DC052
